:020000040000FA
:060000000A128A11F82F1C
:10000C00F40083120313891074080A128A11B522A2
:10001C000A128A118312031309140630F3003030CC
:10002C00F200F20B1728F30B1728000083120313AE
:10003C0009100800F901FA01452879087407F7003E
:10004C007508F6000318F60AF91F2D28F603760832
:10005C00F800780883120313FF00770884000A1253
:10006C008A1500200A128A110A128A152C270A12E4
:10007C008A110130F9070318FA0A0030FA077908D7
:10008C007407F7007508F6000318F60AF91F4F28D5
:10009C00F6037608F800780883120313FF0077083C
:1000AC0084000A128A1500200A128A11003A031DD4
:1000BC006028612823280800F501F60170087104F6
:1000CC00031969286A28A128F701F70A7828013052
:1000DC000310F00DF10DFF3E031D6E280130F400EE
:1000EC007408F707F11F7B287C286D28013003105A
:1000FC00F50DF60DFF3E031D7D2871087302031DDF
:10010C00892870087202031C8C288D28942870088A
:10011C00F2027108031CF303F3027514013003108F
:10012C00F10CF00CFF3E031D95280130F702031D66
:10013C00A028A1287C287608F1007508F00008009A
:10014C0000300A128A11B5220A128A111A30F600EE
:10015C00F830F500F50BB028F60BB0280000303065
:10016C000A128A1106200A128A110730F6007D3015
:10017C00F500F50BBF28F60BBF2830300A128A1198
:10018C0006200A128A110F30F6004730F500F50BE5
:10019C00CD28F60BCD28D22830300A128A11062031
:1001AC000A128A1138300A128A1106200A128A1190
:1001BC000C300A128A1106200A128A1106300A1211
:1001CC008A1106200A128A1108000030FC00003047
:1001DC00FB000030FA000030F9007308720471045F
:1001EC0070040319FA28FB284829FD01FD0A0B2984
:1001FC000130F8000310F00DF10DF20DF30DF80BBA
:10020C0000290130F8007808FD07F31F0E290F298B
:10021C00FE280130F8000310F90DFA0DFB0DFC0D52
:10022C00F80B112973087702031D26297208760230
:10023C00031D262971087502031D262970087402F6
:10024C00031C29292A2939297008F4027108031C76
:10025C00710FF5027208031C720FF6027308031C6F
:10026C00730FF702791401300310F30CF20CF10C3C
:10027C00F00CFF3E031D3A290130FD02031D4729F6
:10028C0048290F297C08F3007B08F2007A08F1005A
:10029C007908F0000800831203132408031D572962
:1002AC00582985292008A5002108A6002208A700A6
:1002BC002308A80006300310A50DA60DA70DA80D48
:1002CC00FF3E031D61292808F3002708F2002608C9
:1002DC00F1002508F0000030F7003D30F600093041
:1002EC00F5000030F4000A128A11EB200A128A1170
:1002FC007008FF3E8316031399001811B1292008CA
:10030C00A5002108A6002208A7002308A800043095
:10031C000310A50DA60DA70DA80DFF3E031D8E29DC
:10032C002808F3002708F2002608F1002508F00041
:10033C000030F7003D30F6000930F5000030F400D5
:10034C000A128A11EB200A128A117008FF3E8316DA
:10035C000313990018151813981618128312031307
:10036C00981718131816181198108316031387175B
:10037C0007130800831603178801890183160313DA
:10038C00880189018501F001F101F20120300A1286
:10039C008A1541270A128A110A128A11A6200A12FA
:1003AC008A11003083120313A3000030A200253001
:1003BC00A1008030A000A401A40A0A128A115121C4
:1003CC000A128A11F501F50A01300A128A1557270B
:1003DC000A128A110130F4008030F5000A128A11D9
:1003EC0020200A128A11F501F50A02300A128A1528
:1003FC0057270A128A11FE308312031385004130ED
:10040C000A128A1516270A128A110A128A1523272C
:10041C000A128A1183120313CF004F08D30053081A
:10042C00CF00D0014F08C5005008C6000A128A112F
:10043C003F230A128A1183120313D1005108D200F0
:10044C005208F4000030F5000A128A1120200A121A
:10045C008A1156300A128A152C270A128A11F92988
:10046C000A128A1100280310831203133C0D3D0D50
:10047C00BE003E08C4004408031D452A462A4F2AE4
:10048C000030BD000030BC000030BB000030BA00B2
:10049C00B42A3A08BE003B08BF003C08C0003D0827
:1004AC00C1001F300310C10CC00CBF0CBE0CFF3EB2
:1004BC00031D582A3E08C2004208C300BC17FF3077
:1004CC00BA05FF30BB05FF30BC050030BD059630CA
:1004DC00C402C41F722A732A8D2A4408803A973E9C
:1004EC000318792A7A2A7B2A462A01300310BD0C7C
:1004FC00BC0CBB0CBA0CFF3E031D7C2A0130BE00A9
:10050C003E08C407031D8B2A8C2A7B2AA42A203080
:10051C004402031C922A932A9F2A462A0130BE00C9
:10052C000310BA0DBB0DBC0DBD0DBE0B962A0130D0
:10053C00C4024408031DA32AA42A942A43080319BD
:10054C00A82AA92AB42ABA09BB09BC09BD09BA0A46
:10055C000319BB0A0319BC0A0319BD0A0800F100F0
:10056C007118B92ABD2A831203130814C02A8312E6
:10057C00031308107108F00001300310F00CFF3E5B
:10058C00031DC32A7018CB2ACF2A83120313881495
:10059C00D22A8312031388107108F0000230031062
:1005AC00F00CFF3E031DD52A7018DD2AE12A8312B8
:1005BC0003130815E42A8312031308117108F000C1
:1005CC0003300310F00CFF3E031DE72A7018EF2ACE
:1005DC00F32A831203138815F62A83120313881146
:1005EC007108F00004300310F00CFF3E031DF92AD3
:1005FC007018012B052B831203130816082B83127A
:10060C00031308127108F00005300310F00CFF3EC4
:10061C00031D0B2B7018132B172B83120313881627
:10062C001A2B8312031388127108F0000630031082
:10063C00F00CFF3E031D1D2B7018252B292B83124C
:10064C00031308172C2B8312031308137108F000E3
:10065C0007300310F00CFF3E031D2F2B7018372BA7
:10066C003B2B8312031388173E2B8312031388131F
:10067C000800831203134508F0004608F100F2014C
:10068C00F30100300A128A11DD230A128A11730851
:10069C0083120313A7007208A6007108A500700846
:1006AC00A4003F30A300FA30A200E130A100483092
:1006BC00A0000A128A1197240A128A1183120313BA
:1006CC002308BD002208BC002108BB002008BA008A
:1006DC000A128A1139220A128A11831203133B0857
:1006EC00C6003A08C5006430F0000030F10046083E
:1006FC00F3004508F2000A128A1162200A128A11CC
:10070C00710883120313CE007008CD004D08303EE3
:10071C00C7004708C8002E30C7004708C9004E085C
:10072C00F1004D08F0006430F2000030F3000A12C2
:10073C008A157A270A128A11700883120313C502CC
:10074C007108031CC603C6020A30F0000030F10029
:10075C004608F3004508F2000A128A1162200A12B8
:10076C008A11710883120313CE007008CD004D0856
:10077C00303EC7004708CA000A30F0000030F100D4
:10078C004608F3004508F2000A128A15C6270A1219
:10079C008A11710883120313CE007008CD004D0826
:1007AC00303EC7004708CB00CC0148300800F800A9
:1007BC0078080319E22BE32BF72BF31FE62BE72B1F
:1007CC00F72B7009FA007109FB007209FC00730920
:1007DC00FD00FA0A0319FB0A0319FC0A0319FD0AA6
:1007EC00FF2B7308FD007208FC007108FB007008F9
:1007FC00FA007308720471047004031D062C072C94
:10080C00102C0030F3000030F2000030F10000300A
:10081C00F000962C9630F4007408F900222C01306C
:10082C00F4007408F90701300310FD0CFC0CFB0CF0
:10083C00FA0CFF3E031D1A2CFE307D05031D272CE0
:10084C00282C152C442C0130F4007408F9070130C5
:10085C00FA07003003180130FB0700300318013091
:10086C00FC07003003180130FD0701300310FD0CAC
:10087C00FC0CFB0CFA0CFF3E031D3C2CFF307D05E1
:10088C00031D492C4A2C292C562C0130F90201301D
:10089C00F4000310FA0DFB0DFC0DFD0DF40B4F2CA9
:1008AC00FC1B592C5A2C602C0230790203185F2C3B
:1008BC00602C4B2C7918632C642C6C2CFF30FA05B3
:1008CC00FF30FB057F30FC05FF30FD050310F90CF4
:1008DC007908F400F501F601F70118300310F40D56
:1008EC00F50DF60DF70DFF3E031D742C7408FA047C
:1008FC007508FB047608FC047708FD0478080319D6
:10090C00882C892C8E2CF31F8C2C8D2C8E2CFD1767
:10091C007D08F3007C08F2007B08F1007A08F000F7
:10092C0008008312031323088039A8002808AD009F
:10093C002308A8002807A9002908B300A21FA72C88
:10094C00A82CA92C331433080319AD2CAE2CBD2CB8
:10095C00330A031DB22CB32CBB2C0030A300003087
:10096C00A2000030A1000030A000A217C52C00305E
:10097C00A3000030A2000030A1000030A000270826
:10098C008039A8002808AD062708A8002807A90068
:10099C002908B200A61FD32CD42CD52C3214320823
:1009AC000319D92CDA2CE92C320A031DDE2CDF2C8E
:1009BC00E72C0030A7000030A6000030A500003066
:1009CC00A400A617F12C0030A7000030A6000030C0
:1009DC00A5000030A40032080319F52CF62CFB2CD2
:1009EC003308031DFA2CFB2C042D0030A30000301F
:1009FC00A2000030A1000030A000F72F2008A800B2
:100A0C002808F00026080A128A159F270A128A1154
:100A1C00710883120313B9007008B8003808A800D5
:100A2C00A901AA01AB012B08B1002A08B0002908C2
:100A3C00AF002808AE003908A800A901AA01AB0133
:100A4C002B08B7002A08B6002908B5002808B400FE
:100A5C002108A8002808F00025080A128A159F27EB
:100A6C000A128A11710883120313B9007008B800B6
:100A7C003808A800A901AA01AB012808AE0729086B
:100A8C0003110318013E03194C2DAF072A0803115B
:100A9C000318013E0319532DB0072B08031103183B
:100AAC00013E03195A2DB1073908A800A901AA0162
:100ABC00AB012808B407290803110318013E0319D8
:100ACC00682DB5072A0803110318013E03196F2D71
:100ADC00B6072B0803110318013E0319762DB7072F
:100AEC002208A8002808F00024080A128A159F275B
:100AFC000A128A11710883120313B9007008B80026
:100B0C003808A800A901AA01AB012808AE072908DA
:100B1C0003110318013E0319942DAF072A08031182
:100B2C000318013E03199B2DB0072B080311031862
:100B3C00013E0319A22DB1073908A800A901AA0189
:100B4C00AB012808B407290803110318013E031947
:100B5C00B02DB5072A0803110318013E0319B72D50
:100B6C00B6072B0803110318013E0319BE2DB70756
:100B7C000830A8000310AE0DAF0DB00DB10DA80BD1
:100B8C00C02D2108A8002808F00024080A128A1594
:100B9C009F270A128A11710883120313B900700877
:100BAC00B8003808A8003908A900AA01AB01280828
:100BBC00AE07290803110318013E0319E62DAF07F0
:100BCC002A0803110318013E0319ED2DB0072B0859
:100BDC0003110318013E0319F42DB1072008A800D6
:100BEC002808F00025080A128A159F270A128A1174
:100BFC00710883120313B9007008B8003808A800F4
:100C0C003908A900AA01AB012808AE07290803116D
:100C1C000318013E0319132EAF072A0803110318FA
:100C2C00013E03191A2EB0072B0803110318013EBD
:100C3C000319212EB1070830A8000310AE0DAF0D1B
:100C4C00B00DB10DA80B232E2008A8002808F00029
:100C5C0024080A128A159F270A128A117108831216
:100C6C000313B9007008B8003808A8003908A900A7
:100C7C00AA01AB012808AE07290803110318013E8D
:100C8C000319492EAF072A0803110318013E031953
:100C9C00502EB0072B0803110318013E0319572ED1
:100CAC00B1072108A8002808F00026080A128A15A6
:100CBC009F270A128A11710883120313B900700856
:100CCC00B8003808A8003908A900AA01AB01280807
:100CDC00B407290803110318013E0319762EB50732
:100CEC002A0803110318013E03197D2EB6072B08A1
:100CFC0003110318013E0319842EB7072208A8001C
:100D0C002808F00025080A128A159F270A128A1152
:100D1C00710883120313B9007008B8003808A800D2
:100D2C003908A900AA01AB012808B4072908031146
:100D3C000318013E0319A32EB5072A080311031843
:100D4C00013E0319AA2EB6072B0803110318013E06
:100D5C000319B12EB7072208A8002808F0002608AE
:100D6C000A128A159F270A128A117108831203131B
:100D7C00B9007008B8003808A8003908A900AA0101
:100D8C00AB0108300310A80DA90DAA0DAB0DFF3E49
:100D9C00031DC82E2808B407290803110318013EA7
:100DAC000319D92EB5072A0803110318013E03199C
:100DBC00E02EB6072B0803110318013E0319E72E8A
:100DCC00B7072E08A8002F08A9003008AA00310880
:100DDC00AB0018300310AB0CAA0CA90CA80CFF3EEE
:100DEC00031DF02E2808B407290803110318013E2F
:100DFC000319012FB5072A0803110318013E031923
:100E0C00082FB6072B0803110318013E03190F2FE7
:100E1C00B7070830A8000310AE0DAF0DB00DB10D23
:100E2C00A80B112F33083207A800A901A90D280817
:100E3C00823EB80029080318013EFF3EB900432F3B
:100E4C000130A8000310B40DB50DB60DB70DA80BED
:100E5C00282FB11F322F332F342F34140130A80018
:100E6C000310AE0DAF0DB00DB10DA80B362FFF302A
:100E7C00B8070318B90AFF30B907B61F462F472F1A
:100E8C00262FB201B11F4B2F4C2F682FFF302E0590
:100E9C00A800FF302F05A900FF303005AA007F30D5
:100EAC003105AB002B082A042904280403195F2FF1
:100EBC00602F632FB201B20A682F341C662F672F84
:100ECC00682F602F320803196C2F6D2F9E2F013065
:100EDC00B407003003180130B50700300318013097
:100EEC00B607003003180130B707371C7E2F7F2F51
:100EFC009E2F3408A8003508A9003608AA00370828
:100F0C00AB000130AC002B0DAB0CAA0CA90CA80C3F
:100F1C00AC0B892F2B08B7002A08B6002908B5009E
:100F2C002808B4000130B8070318B90A0030B90713
:100F3C003908803AFF0080307F02031DA72FFF3055
:100F4C003802031CAA2FAB2FB62F7F30831203134A
:100F5C00B7008030B6000030B5000030B400EB2F85
:100F6C00831203133908803AFF0080307F02031D7F
:100F7C00C12F013038020318C42FC52FD12F0030D8
:100F8C0083120313B7000030B6000030B5000030F8
:100F9C00B400AD01EB2F831203133808A800280806
:100FAC00B300FF30B405FF30B5057F30B605003017
:100FBC00B705331CE22FE32FE42FB6173308A80034
:100FCC000310280CA9002908B7002D08A800280830
:100FDC00B7043708A3003608A2003508A10034086E
:100FEC00A000080083120313D201D30183010A125B
:100FFC008A11C029FF1B0A2883137F188317000846
:10100C00840A0319FF0A080008308A000408840ABD
:10101C00820700344134443443343A34203443346A
:10102C004F344E3454343A342034543445344D34E3
:06103C0050343A34003488
:101E2C00F000700883120313930008008316031349
:101E3C00141C212F222F1C2F08000A128A151C2774
:101E4C000A128A158312031313080800F300831275
:101E5C000313891473080A128A11B5220A128A15FF
:101E6C008312031309140D30F200F20B3B2F831273
:101E7C00031309100800F300831603138712731D54
:101E8C00482F492F4D2F720894008715512F700839
:101E9C007204940087117308710483120313940065
:101EAC000800F800692F75087F3E0A128A11062077
:101EBC000A128A15792F7508BF3E0A128A1106205C
:101ECC000A128A15792F7808F600F7017708003A7C
:101EDC000319712F792F7608013A0319592F033AF8
:101EEC000319612F792F0800F401F501701C7F2F65
:101EFC00802F862F7208F4070318F50A7308F5076C
:101F0C0001300310F20DF30DFF3E031D872F01303E
:101F1C000310F10CF00CFF3E031D8E2F70087104A2
:101F2C00031D992F9A2F7C2F7508F1007408F0006F
:101F3C000800F800F401F5017008F200F3017208D2
:101F4C00F6007308F700781CAC2FAD2FB32F760872
:101F5C00F4070318F50A7708F50701300310F60D9E
:101F6C00F70DFF3E031DB42F0310F80C7808031D6A
:101F7C00C02FC12FA92F7508F1007408F0000800BC
:101F8C00700871040319CB2FCC2FFB2FF501F50A28
:101F9C00DA2F01300310F00DF10DFF3E031DD02F91
:101FAC000130F4007408F507F11FDD2FDE2FCF2F61
:101FBC0071087302031DE42F70087202031CE72FD3
:101FCC00E82FEE2F7008F2027108031CF303F302E2
:101FDC0001300310F10CF00CFF3E031DEF2F01300C
:101FEC00F502031DFA2FFB2FDE2F7308F100720888
:041FFC00F0000800E9
:04400E00D420FF3F7C
:00000001FF
