:020000040000FA
:060000000A128A11F42F20
:10000800F300831603138712731D0B280C2810287E
:1000180072089400871514287008720494008711D8
:100028007308710483120313940008000030FC0065
:100038000030FB000030FA000030F9007308720449
:1000480071047004031929282A287728FD01FD0A5C
:100058003A280130F8000310F00DF10DF20DF30D00
:10006800F80B2F280130F8007808FD07F31F3D280A
:100078003E282D280130F8000310F90DFA0DFB0D6C
:10008800FC0DF80B402873087702031D55287208E9
:100098007602031D552871087502031D552870083E
:1000A8007402031C5828592868287008F40271083B
:1000B800031C710FF5027208031C720FF602730815
:1000C800031C730FF702791401300310F30CF20CC0
:1000D800F10CF00CFF3E031D69280130FD02031DE1
:1000E800762877283E287C08F3007B08F2007A08F7
:1000F800F1007908F0000800F601F11F842885282E
:100108008C28F009F109F00A0319F10AF601F60A38
:10011800F31F8F2890289928F209F309F20A031986
:10012800F30A0130F4007408F606F701F8017008C4
:1001380071040319A028A128D828F501F50AAF28C9
:1001480001300310F00DF10DFF3E031DA52801300D
:10015800F4007408F507F11FB228B328A428013069
:100168000310F70DF80DFF3E031DB4287108730244
:10017800031DC02870087202031CC328C428CB289A
:100188007008F2027108031CF303F30277140130BC
:100198000310F10CF00CFF3E031DCC280130F502D2
:1001A800031DD728D828B32876080319DC28DD28AA
:1001B800E228F709F809F70A0319F80A7808F1009C
:1001C8007708F0000800831203132408031DED28A4
:1001D800EE281B292008A5002108A6002208A70050
:1001E8002308A80006300310A50DA60DA70DA80D1D
:1001F800FF3E031DF7282808F3002708F200260809
:10020800F1002508F0000030F7003D30F600093015
:10021800F5000030F4000A128A111A200A128A1115
:100228007008FF3E83160313990018114729200808
:10023800A5002108A6002208A7002308A80004306A
:100248000310A50DA60DA70DA80DFF3E031D24291B
:100258002808F3002708F2002608F1002508F00016
:100268000030F7003D30F6000930F5000030F400AA
:100278000A128A111A200A128A117008FF3E831680
:1002880003139900181518139816181283120313DC
:100298009817181318161811981083160313871730
:1002A800071308000310831203133C0D3D0DBE0015
:1002B8003E08C4004408031D622963296C290030E4
:1002C800BD000030BC000030BB000030BA00D129AE
:1002D8003A08BE003B08BF003C08C0003D08C1000A
:1002E8001F300310C10CC00CBF0CBE0CFF3E031D19
:1002F80075293E08C2004208C300BC17FF30BA0582
:10030800FF30BB05FF30BC050030BD059630C40288
:10031800C41F8F299029AA294408803A973E0318B8
:10032800962997299829632901300310BD0CBC0C24
:10033800BB0CBA0CFF3E031D99290130BE003E08D4
:10034800C407031DA829A9299829C12920304402D6
:10035800031CAF29B029BC2963290130BE00031052
:10036800BA0DBB0DBC0DBD0DBE0BB3290130C402C7
:100378004408031DC029C129B12943080319C52907
:10038800C629D129BA09BB09BC09BD09BA0A03198A
:10039800BB0A0319BC0A0319BD0A0800F100711849
:1003A800D629DA29831203130814DD2983120313CB
:1003B80008107108F00001300310F00CFF3E031D17
:1003C800E0297018E829EC29831203138814EF290F
:1003D8008312031388107108F00002300310F00C28
:1003E800FF3E031DF2297018FA29FE298312031310
:1003F8000815012A8312031308117108F00003304D
:100408000310F00CFF3E031D042A70180C2A102A52
:10041800831203138815132A831203138811710892
:10042800F00004300310F00CFF3E031D162A70186C
:100438001E2A222A831203130816252A831203135D
:1004480008127108F00005300310F00CFF3E031D80
:10045800282A7018302A342A831203138816372A58
:100468008312031388127108F00006300310F00C91
:10047800FF3E031D3A2A7018422A462A83120313A4
:100488000817492A8312031308137108F00007306C
:100498000310F00CFF3E031D4C2A7018542A582AEA
:1004A8008312031388175B2A831203138813080027
:1004B800831203134508F0004608F100F201F30126
:1004C80000300A128A11FA220A128A11730883125A
:1004D8000313A7007208A6007108A5007008A400FD
:1004E8003F30A300FA30A200E130A1004830A0005C
:1004F8000A128A1193240A128A11831203132308F9
:10050800BD002208BC002108BB002008BA000A125E
:100518008A1156210A128A11831203133B08C60056
:100528003A08C5006430F0000030F1004608F300D6
:100538004508F2000A128A15C0260A128A117108A3
:1005480083120313CE007008CD004D08303EC7005B
:100558004708C8002E30C7004708C9004E08F100F8
:100568004D08F0006430F2000030F3000A128A15DA
:10057800F8250A128A11700883120313C50271083C
:10058800031CC603C6020A30F0000030F10046081A
:10059800F3004508F2000A128A15C0260A128A11C9
:1005A800710883120313CE007008CD004D08303E49
:1005B800C7004708CA000A30F0000030F1004608BA
:1005C800F3004508F2000A128A1544260A128A1115
:1005D800710883120313CE007008CD004D08303E19
:1005E800C7004708CB00CC0148300800F80078085D
:1005F8000319FF2A002B142BF31F032B042B142B96
:100608007009FA007109FB007209FC007309FD000A
:10061800FA0A0319FB0A0319FC0A0319FD0A1C2B21
:100628007308FD007208FC007108FB007008FA00EE
:100638007308720471047004031D232B242B2D2BC3
:100648000030F3000030F2000030F1000030F0001C
:10065800B32B9630F4007408F9003F2B0130F400F6
:100668007408F90701300310FD0CFC0CFB0CFA0CA4
:10067800FF3E031D372BFE307D05031D442B452B04
:10068800322B612B0130F4007408F9070130FA07A6
:10069800003003180130FB07003003180130FC0755
:1006A800003003180130FD0701300310FD0CFC0C6D
:1006B800FB0CFA0CFF3E031D592BFF307D05031D73
:1006C800662B672B462B732B0130F9020130F4009F
:1006D8000310FA0DFB0DFC0DFD0DF40B6C2BFC1B30
:1006E800762B772B7D2B0230790203187C2B7D2B00
:1006F800682B7918802B812B892BFF30FA05FF3066
:10070800FB057F30FC05FF30FD050310F90C790867
:10071800F400F501F601F70118300310F40DF50D9A
:10072800F60DF70DFF3E031D912B7408FA047508AA
:10073800FB047608FC047708FD0478080319A52B48
:10074800A62BAB2BF31FA92BAA2BAB2BFD177D08D0
:10075800F3007C08F2007B08F1007A08F00008003A
:1007680083160317880189018316031388018901F9
:10077800F8308500F001F101F20120300A128A11E7
:1007880004200A128A110A128A1504270A128A11E9
:10079800003083120313A3000030A2002530A1000B
:1007A8008030A000A401A40A0A128A11E7200A12C4
:1007B8008A11F501F50A01300A128A15D5250A129F
:1007C8008A110130F4008030F5000A128A157E265D
:1007D8000A128A11F501F50A02300A128A15D5257E
:1007E8000A128A11063083120313850041300A1257
:1007F8008A157B250A128A110A128A1588250A1277
:100808008A1183120313CF004F08D7005708CF006F
:10081800D0014F08C5005008C6000A128A115C2290
:100828000A128A1183120313D1005108D600560800
:10083800F4000030F5000A128A157E260A128A1181
:100848001230F4008030F5000A128A157E260A124A
:100858008A11053083120313850043300A128A1562
:100868007B250A128A110A128A1588250A128A110A
:1008780083120313CF004F08D50055080A128A15B2
:10088800A2270A128A1183120313CF004F08D4003B
:100898005408F4000030F5000A128A157E260A1260
:1008A8008A1120300A128A1591250A128A110330FA
:1008B80083120313850054300A128A157B250A1205
:1008C8008A110A128A1588250A128A1183120313BB
:1008D800CF004F08D20052080A128A15A2270A121E
:1008E8008A1183120313CF004F08D3005308F40072
:1008F8000030F5000A128A157E260A128A11DF30A6
:100908000A128A1591250A128A1143300A128A1589
:1009180091250A128A11EE2B0A128A1100288312D5
:10092800031323088039A8002808AD002308A8006D
:100938002807A9002908B300A21FA32CA42CA52CC2
:10094800331433080319A92CAA2CB92C330A031D14
:10095800AE2CAF2CB72C0030A3000030A200003022
:10096800A1000030A000A217C12C0030A300003065
:10097800A2000030A1000030A00027088039A8009C
:100988002808AD062708A8002807A9002908B200EA
:10099800A61FCF2CD02CD12C321432080319D52CF9
:1009A800D62CE52C320A031DDA2CDB2CE32C003084
:1009B800A7000030A6000030A5000030A400A6174C
:1009C800ED2C0030A7000030A6000030A500003054
:1009D800A40032080319F12CF22CF72C3308031D5C
:1009E800F62CF72C002D0030A3000030A2000030B8
:1009F800A1000030A000F32F2008A8002808F0006C
:100A080026080A128A151D260A128A1171088312ED
:100A18000313B9007008B8003808A800A901AA0192
:100A2800AB012B08B1002A08B0002908AF0028083C
:100A3800AE003908A800A901AA01AB012B08B7002C
:100A48002A08B6002908B5002808B4002108A8001B
:100A58002808F00025080A128A151D260A128A118C
:100A6800710883120313B9007008B8003808A80089
:100A7800A901AA01AB012808AE0729080311031828
:100A8800013E0319482DAF072A0803110318013E38
:100A980003194F2DB0072B0803110318013E031942
:100AA800562DB1073908A800A901AA01AB012808E9
:100AB800B407290803110318013E0319642DB5076B
:100AC8002A0803110318013E03196B2DB6072B08DA
:100AD80003110318013E0319722DB7072208A80055
:100AE8002808F00024080A128A151D260A128A11FD
:100AF800710883120313B9007008B8003808A800F9
:100B0800A901AA01AB012808AE0729080311031897
:100B1800013E0319902DAF072A0803110318013E5F
:100B28000319972DB0072B0803110318013E031969
:100B38009E2DB1073908A800A901AA01AB01280810
:100B4800B407290803110318013E0319AC2DB50792
:100B58002A0803110318013E0319B32DB6072B0801
:100B680003110318013E0319BA2DB7070830A8006E
:100B78000310AE0DAF0DB00DB10DA80BBC2D2108A3
:100B8800A8002808F00024080A128A151D260A124F
:100B98008A11710883120313B9007008B800380865
:100BA800A8003908A900AA01AB012808AE0729083E
:100BB80003110318013E0319E22DAF072A08031198
:100BC8000318013E0319E92DB0072B080311031878
:100BD800013E0319F02DB1072008A8002808F000ED
:100BE80025080A128A151D260A128A11710883120D
:100BF8000313B9007008B8003808A8003908A9001C
:100C0800AA01AB012808AE07290803110318013E01
:100C180003190F2EAF072A0803110318013E031901
:100C2800162EB0072B0803110318013E03191D2EB9
:100C3800B1070830A8000310AE0DAF0DB00DB10D0F
:100C4800A80B1F2E2008A8002808F00024080A1264
:100C58008A151D260A128A11710883120313B90016
:100C68007008B8003808A8003908A900AA01AB0123
:100C78002808AE07290803110318013E0319452E59
:100C8800AF072A0803110318013E03194C2EB007B9
:100C98002B0803110318013E0319532EB10721082D
:100CA800A8002808F00026080A128A151D260A122C
:100CB8008A11710883120313B9007008B800380844
:100CC800A8003908A900AA01AB012808B407290817
:100CD80003110318013E0319722EB5072A080311E0
:100CE8000318013E0319792EB6072B0803110318C0
:100CF800013E0319802EB7072208A8002808F00033
:100D080025080A128A151D260A128A1171088312EB
:100D18000313B9007008B8003808A8003908A900FA
:100D2800AA01AB012808B407290803110318013EDA
:100D380003199F2EB5072A0803110318013E03194A
:100D4800A62EB6072B0803110318013E0319AD2E72
:100D5800B7072208A8002808F00026080A128A15F2
:100D68001D260A128A11710883120313B90070082C
:100D7800B8003808A8003908A900AA01AB01083052
:100D88000310A80DA90DAA0DAB0DFF3E031DC42E1F
:100D98002808B407290803110318013E0319D52EA2
:100DA800B5072A0803110318013E0319DC2EB607FC
:100DB8002B0803110318013E0319E32EB7072E0869
:100DC800A8002F08A9003008AA003108AB00183085
:100DD8000310AB0CAA0CA90CA80CFF3E031DEC2EAB
:100DE8002808B407290803110318013E0319FD2E2A
:100DF800B5072A0803110318013E0319042FB60783
:100E08002B0803110318013E03190B2FB7070830ED
:100E1800A8000310AE0DAF0DB00DB10DA80B0D2F2E
:100E280033083207A800A901A90D2808823EB80096
:100E380029080318013EFF3EB9003F2F0130A800E2
:100E48000310B40DB50DB60DB70DA80B242FB11FA7
:100E58002E2F2F2F302F34140130A8000310AE0D81
:100E6800AF0DB00DB10DA80B322FFF30B807031826
:100E7800B90AFF30B907B61F422F432F222FB201FC
:100E8800B11F472F482F642FFF302E05A800FF30D1
:100E98002F05A900FF303005AA007F303105AB00CF
:100EA8002B082A042904280403195B2F5C2F5F2FC1
:100EB800B201B20A642F341C622F632F642F5C2F97
:100EC80032080319682F692F9A2F0130B4070030B0
:100ED80003180130B507003003180130B607003099
:100EE80003180130B707371C7A2F7B2F9A2F340845
:100EF800A8003508A9003608AA003708AB00013059
:100F0800AC002B0DAB0CAA0CA90CA80CAC0B852FB4
:100F18002B08B7002A08B6002908B5002808B4002D
:100F28000130B8070318B90A0030B9073908803A00
:100F3800FF0080307F02031DA32FFF303802031CFF
:100F4800A62FA72FB22F7F3083120313B70080304C
:100F5800B6000030B5000030B400E72F8312031349
:100F68003908803AFF0080307F02031DBD2F013011
:100F780038020318C02FC12FCD2F0030831203135E
:100F8800B7000030B6000030B5000030B400AD0145
:100F9800E72F831203133808A8002808B300FF308E
:100FA800B405FF30B5057F30B6050030B705331CF2
:100FB800DE2FDF2FE02FB6173308A8000310280C08
:100FC800A9002908B7002D08A8002808B704370881
:100FD800A3003608A2003508A1003408A0000800C4
:100FE80083120313D201D301D401D501D601D7014D
:100FF80083010A128A11B42BFF1B0A2883137F1856
:1010080083170008840A0319FF0A080008308A00B9
:101018000408840A820700344134443443343A349F
:10102800203443344F344E3454343A342034543416
:1010380045344D3450343A34003456342034003476
:101AF600F000700883120313930008008316031383
:101B0600141C862D872D812D08000A128A15812521
:101B16000A128A158312031313080800F3008312AE
:101B26000313891473080A128A11D2210A128A151C
:101B36008312031309140D30F200F20BA02D831249
:101B4600031309100800F300F201731CAB2DAC2D32
:101B5600B02D7008F1007108F2070310F00D0310A4
:101B6600F30C7308031DB82DB92DA82D72080800B3
:101B7600F40083120313891074080A128A11D22101
:101B86000A128A158312031309140630F300303043
:101B9600F200F20BCC2DF30BCC2D000083120313B5
:101BA60009100800F800E72D75087F3E0A128A150D
:101BB600BB250A128A15F72D7508BF3E0A128A152B
:101BC600BB250A128A15F72D7808F600F701770863
:101BD600003A0319EF2DF72D7608013A0319D72D90
:101BE600033A0319DF2DF72D0800F401F501701CE7
:101BF600FD2DFE2D042E7208F4070318F50A73084E
:101C0600F50701300310F20DF30DFF3E031D052EFF
:101C160001300310F10CF00CFF3E031D0C2E700872
:101C26007104031D172E182EFA2D7508F10074087D
:101C3600F0000800F800F401F5017008F200F30165
:101C46007208F6007308F700781C2A2E2B2E312E08
:101C56007608F4070318F50A7708F507013003102C
:101C6600F60DF70DFF3E031D322E0310F80C780813
:101C7600031D3E2E3F2E272E7508F1007408F00036
:101C86000800700871040319492E4A2E792EF501B1
:101C9600F50A582E01300310F00DF10DFF3E031D1D
:101CA6004E2E0130F4007408F507F11F5B2E5C2EF2
:101CB6004D2E71087302031D622E70087202031CFA
:101CC600652E662E6C2E7008F2027108031CF30353
:101CD600F30201300310F10CF00CFF3E031D6D2ED4
:101CE6000130F502031D782E792E5C2E7308F10063
:101CF6007208F0000800F901FA01A32E79087407AA
:101D0600F7007508F6000318F60AF91F8B2EF6037E
:101D16007608F800780883120313FF00770884001A
:101D26000A128A1500200A128A150A128A159125A6
:101D36000A128A150130F9070318FA0A0030FA0761
:101D460079087407F7007508F6000318F60AF91FF4
:101D5600AD2EF6037608F800780883120313FF0009
:101D6600770884000A128A1500200A128A15003A9A
:101D7600031DBE2EBF2E812E0800F501F601700848
:101D860071040319C72EC82EFF2EF701F70AD62EA7
:101D960001300310F00DF10DFF3E031DCC2E013076
:101DA600F4007408F707F11FD92EDA2ECB2E013076
:101DB6000310F50DF60DFF3E031DDB2E71087302B1
:101DC600031DE72E70087202031CEA2EEB2EF22E7C
:101DD6007008F2027108031CF303F3027514013054
:101DE6000310F10CF00CFF3E031DF32E0130F70239
:101DF600031DFE2EFF2EDA2E7608F1007508F00080
:101E0600080000300A128A11D2210A128A151A30E5
:101E1600F600F830F500F50B0E2FF60B0E2F00002E
:101E260030300A128A15BB250A128A150730F600C9
:101E36007D30F500F50B1D2FF60B1D2F30300A12E5
:101E46008A15BB250A128A150F30F6004730F500B1
:101E5600F50B2B2FF60B2B2F302F30300A128A154D
:101E6600BB250A128A1538300A128A15BB250A12B2
:101E76008A150C300A128A15BB250A128A150630F5
:101E86000A128A15BB250A128A150800F601F31FE5
:101E96004D2F4E2F552FF209F309F20A0319F30AB3
:101EA600F601F60AF11F582F592F5E2FF009F10996
:101EB600F00A0319F10A700871040319632F642FDD
:101EC600932FF501F50A722F01300310F00DF10D75
:101ED600FF3E031D682F0130F4007408F507F11F5B
:101EE600752F762F672F71087302031D7C2F7008DC
:101EF6007202031C7F2F802F862F7008F202710852
:101F0600031CF303F30201300310F10CF00CFF3E47
:101F1600031D872F0130F502031D922F932F762F75
:101F260076080319972F982F9D2FF209F309F20AC5
:101F36000319F30A7308F1007208F000080083120F
:101F46000313A5006430F0000030F1002508F90005
:101F5600FA017908F2007A08F3000A128A11802041
:101F66000A128A157008FB007B0883120313A4006B
:101F76002408303EF9007908A0006430F900790899
:101F8600F00024080A128A15A6250A128A15FA00F4
:101F96007A0883120313A5020A30F0000030F1001C
:101FA6002508F900FA017908F2007A08F3000A1206
:101FB6008A1180200A128A157008303EFB007B08C1
:101FC60083120313A1000A30F0000030F100250847
:101FD600F900FA017908F2007A08F3000A128A1564
:101FE60049270A128A157008303EFB007B088312C7
:0A1FF6000313A200A301203008002D
:04400E00D420FF3F7C
:00000001FF
