:020000040000FA
:060000000A128A11FC2F18
:100DCE00F300831603138712731DEE2EEF2EF32EF0
:100DDE00720894008715F72E70087204940087111C
:100DEE00730871048312031394000800831603130F
:100DFE0088018901F001F101F20120300A128A11F5
:100E0E00E7260A128A110A128A112D270A128A114E
:100E1E000F2F0A128A110028F4008312031389106F
:100E2E0074080A128A1172270A128A118312031386
:100E3E0009140630F3003030F200F20B242FF30BBE
:100E4E00242F0000831203130910080000300A1229
:100E5E008A1172270A128A111A30F600F830F5003C
:100E6E00F50B372FF60B372F000030300A128A1190
:100E7E0013270A128A110730F6007D30F500F50BA4
:100E8E00462FF60B462F30300A128A1113270A12FC
:100E9E008A110F30F6004730F500F50B542FF60B84
:100EAE00542F592F30300A128A1113270A128A1121
:100EBE0038300A128A1113270A128A110C300A12BC
:100ECE008A1113270A128A1106300A128A11132761
:100EDE000A128A110800F1007118762F7A2F8312E8
:100EEE00031308147D2F8312031308107108F000EA
:100EFE0001300310F00CFF3E031D802F7018882F59
:100F0E008C2F8312031388148F2F831203138810D0
:100F1E007108F00002300310F00CFF3E031D922FFB
:100F2E0070189A2F9E2F831203130815A12F831268
:100F3E00031308117108F00003300310F00CFF3E8C
:100F4E00031DA42F7018AC2FB02F83120313881516
:100F5E00B32F8312031388117108F00004300310AD
:100F6E00F00CFF3E031DB62F7018BE2FC22F83123A
:100F7E0003130816C52F8312031308127108F0000D
:100F8E0005300310F00CFF3E031DC82F7018D02F34
:100F9E00D42F831203138816D72F831203138812AC
:100FAE007108F00006300310F00CFF3E031DDA2F1F
:100FBE007018E22FE62F831203130817E92F8312FE
:100FCE00031308137108F00007300310F00CFF3EF6
:100FDE00031DEC2F7018F42FF82F831203138817AC
:100FEE00FB2F831203138813080083010A128A1140
:020FFE00FD2EC6
:04400E00D420FF3F7C
:00000001FF
