:020000040000FA
:100000000A128A11FC2FFF1B0D2883137F188317F8
:100010000008840A0319FF0A080000308A00040857
:10002000840A820700344134443443343A3420345F
:1000300043344F344E3454343A34203454344534F9
:080040004D3450343A34003411
:1007F000F00070088312031393000800831603139C
:10080000141C032C042CFE2B08000A128A11FE2350
:100810000A128A118312031313080800F3008312CB
:100820000313891473080A128A1172270A128A1193
:100830008312031309140D30F200F20B1D2C8312E6
:10084000031309100800F300F201731C282C292C53
:100850002D2C7008F1007108F2070310F00D031041
:10086000F30C7308031D352C362C252C7208080058
:10087000F300831603138712731D3F2C402C442C66
:10088000720894008715482C700872049400871130
:10089000730871048312031394000800F400831298
:1008A0000313891074080A128A1172270A128A1116
:1008B0008312031309140630F3003030F200F20BF8
:1008C0005F2CF30B5F2C0000831203130910080048
:1008D000F8007A2C75087F3E0A128A114E240A12FB
:1008E0008A118A2C7508BF3E0A128A114E240A12F8
:1008F0008A118A2C7808F600F7017708003A031964
:10090000822C8A2C7608013A03196A2C033A0319BF
:10091000722C8A2C0800F901FA01B02C79087407AE
:10092000F7007508F6000318F60AF91F982CF6036D
:100930007608F800780883120313FF007708840014
:100940000A128A1103200A128A110A128A110E242D
:100950000A128A110130F9070318FA0A0030FA075F
:1009600079087407F7007508F6000318F60AF91FEE
:10097000BA2CF6037608F800780883120313FF00F8
:10098000770884000A128A1103200A128A11003A99
:10099000031DCB2CCC2C8E2C080000300A128A119F
:1009A00072270A128A111A30F600F830F500F50B9A
:1009B000D72CF60BD72C000030300A128A114E24A7
:1009C0000A128A110730F6007D30F500F50BE62C8F
:1009D000F60BE62C30300A128A114E240A128A11C4
:1009E0000F30F6004730F500F50BF42CF60BF42C25
:1009F000F92C30300A128A114E240A128A1138302A
:100A00000A128A114E240A128A110C300A128A1113
:100A10004E240A128A1106300A128A114E240A1232
:100A20008A110800F601F31F162D172D1E2DF2094D
:100A3000F309F20A0319F30AF601F60AF11F212D50
:100A4000222D272DF009F109F00A0319F10A700887
:100A5000710403192C2D2D2D5C2DF501F50A3B2D6C
:100A600001300310F00DF10DFF3E031D312D01305B
:100A7000F4007408F507F11F3E2D3F2D302D71084D
:100A80007302031D452D70087202031C482D492D69
:100A90004F2D7008F2027108031CF303F3020130BA
:100AA0000310F10CF00CFF3E031D502D0130F50238
:100AB000031D5B2D5C2D3F2D76080319602D612DE4
:100AC000662DF209F309F20A0319F30A7308F1001B
:100AD0007208F000080083120313A5006430F000D0
:100AE0000030F1002508F900FA017908F2007A08CF
:100AF000F3000A128A112F260A128A117008FB00CD
:100B00007B0883120313A4002408303EF9007908FF
:100B1000A0006430F9007908F00024080A128A1154
:100B200023240A128A11FA007A0883120313A502F9
:100B30000A30F0000030F1002508F900FA017908C8
:100B4000F2007A08F3000A128A112F260A128A117B
:100B50007008303EFB007B0883120313A1000A30AB
:100B6000F0000030F1002508F900FA017908F200E0
:100B70007A08F3000A128A1112250A128A117008E3
:100B8000303EFB007B0883120313A200A301203038
:100B900008000030FC000030FB000030FA0000309C
:100BA000F90073087204710470040319D82DD92D4B
:100BB000262EFD01FD0AE92D0130F8000310F00D8D
:100BC000F10DF20DF30DF80BDE2D0130F800780871
:100BD000FD07F31FEC2DED2DDC2D0130F800031087
:100BE000F90DFA0DFB0DFC0DF80BEF2D73087702D4
:100BF000031D042E72087602031D042E710875026F
:100C0000031D042E70087402031C072E082E172ED5
:100C10007008F4027108031C710FF5027208031CBE
:100C2000720FF6027308031C730FF7027914013078
:100C30000310F30CF20CF10CF00CFF3E031D182E08
:100C40000130FD02031D252E262EED2D7C08F3001C
:100C50007B08F2007A08F1007908F0000800F6013C
:100C6000F11F332E342E3B2EF009F109F00A03193F
:100C7000F10AF601F60AF31F3E2E3F2E482EF20926
:100C8000F309F20A0319F30A0130F4007408F606B6
:100C9000F701F8017008710403194F2E502E872EAA
:100CA000F501F50A5E2E01300310F00DF10DFF3E47
:100CB000031D542E0130F4007408F507F11F612E56
:100CC000622E532E01300310F70DF80DFF3E031D69
:100CD000632E71087302031D6F2E70087202031CCD
:100CE000722E732E7A2E7008F2027108031CF30321
:100CF000F302771401300310F10CF00CFF3E031DDA
:100D00007B2E0130F502031D862E872E622E76087B
:100D100003198B2E8C2E912EF709F809F70A031967
:100D2000F80A7808F1007708F00008008316031726
:100D30008801890183160313880189018501F00167
:100D4000F101F20120300A128A1138240A128A11A4
:100D50000A128A11CD240A128A1100308312031359
:100D6000A3000030A2002530A1008030A000A40123
:100D7000A40A0A128A1103270A128A11F501F50A38
:100D800001300A128A1168240A128A110130F40013
:100D90008030F5000A128A118B240A128A11F5019B
:100DA000F50A02300A128A1168240A128A11FE30EA
:100DB00083120313850001300A128A11F8230A12E4
:100DC0008A110A128A1105240A128A118312031346
:100DD000A9002908AA002A080A128A116B250A12FA
:100DE0008A1183120313A9002908AB002B08F40011
:100DF0000030F5000A128A118B240A128A11CF2EB4
:100E00000A128A110028831203132408031D092FD4
:100E10000A2F372F2008A5002108A6002208A700C6
:100E20002308A80006300310A50DA60DA70DA80DD8
:100E3000FF3E031D132F2808F3002708F2002608A1
:100E4000F1002508F0000030F7003D30F6000930D1
:100E5000F5000030F4000A128A11C9250A128A111D
:100E60007008FF3E8316031399001811632F2008A2
:100E7000A5002108A6002208A7002308A800043026
:100E80000310A50DA60DA70DA80DFF3E031D402FB5
:100E90002808F3002708F2002608F1002508F000D2
:100EA0000030F7003D30F6000930F5000030F40066
:100EB0000A128A11C9250A128A117008FF3E831688
:100EC0000313990018151813981618128312031398
:100ED00098171813181618119810831603138717EC
:100EE00007130800F1007118762F7A2F831203136D
:100EF00008147D2F8312031308107108F0000130CD
:100F00000310F00CFF3E031D802F7018882F8C2FCC
:100F10008312031388148F2F831203138810710810
:100F2000F00002300310F00CFF3E031D922F7018EA
:100F30009A2F9E2F831203130815A12F83120313D8
:100F400008117108F00003300310F00CFF3E031D80
:100F5000A42F7018AC2FB02F831203138815B32F52
:100F60008312031388117108F00004300310F00C91
:100F7000FF3E031DB62F7018BE2FC22F831203131E
:100F80000816C52F8312031308127108F0000530EC
:100F90000310F00CFF3E031DC82F7018D02FD42F64
:100FA000831203138816D72F831203138812710834
:100FB000F00006300310F00CFF3E031DDA2F70180E
:100FC000E22FE62F831203130817E92F831203136E
:100FD00008137108F00007300310F00CFF3E031DEA
:100FE000EC2F7018F42FF82F831203138817FB2FA0
:100FF000831203138813080083010A128A11962EA4
:04400E00D420FF3F7C
:00000001FF
