:020000040000FA
:060000000A128A11F42F20
:10000A00F800F401F5017008F200F3017208F60035
:10001A007308F700781C1228132819287608F407A1
:10002A000318F50A7708F50701300310F60DF70DE6
:10003A00FF3E031D1A280310F80C7808031D262812
:10004A0027280F287508F1007408F0000800F60147
:10005A00F11F302831283828F009F109F00A03196C
:10006A00F10AF601F60AF31F3B283C284528F20953
:10007A00F309F20A0319F30A0130F4007408F606C8
:10008A00F701F8017008710403194C284D288428D7
:10009A00F501F50A5B2801300310F00DF10DFF3E62
:1000AA00031D51280130F4007408F507F11F5E287A
:1000BA005F28502801300310F70DF80DFF3E031D8D
:1000CA00602871087302031D6C2870087202031CF1
:1000DA006F28702877287008F2027108031CF3034E
:1000EA00F302771401300310F10CF00CFF3E031DEC
:1000FA0078280130F502031D832884285F287608B2
:10010A000319882889288E28F709F809F70A031994
:10011A00F80A7808F1007708F00008008312031340
:10012A002408031D99289A28C7282008A500210811
:10013A00A6002208A7002308A80006300310A50D70
:10014A00A60DA70DA80DFF3E031DA3282808F3003E
:10015A002708F2002608F1002508F0000030F70011
:10016A003D30F6000930F5000030F4000A128A1515
:10017A009A270A128A117008FF3E83160313990000
:10018A001811F3282008A5002108A6002208A700B4
:10019A002308A80004300310A50DA60DA70DA80D6D
:1001AA00FF3E031DD0282808F3002708F20026087E
:1001BA00F1002508F0000030F7003D30F600093064
:1001CA00F5000030F4000A128A159A270A128A11D9
:1001DA007008FF3E83160313990018151813981612
:1001EA001812831203139817181318161811981057
:1001FA0083160313871707130800031083120313C8
:10020A003C0D3D0DBE003E08C4004408031D0E29E6
:10021A000F2918290030BD000030BC000030BB0097
:10022A000030BA007D293A08BE003B08BF003C08EE
:10023A00C0003D08C1001F300310C10CC00CBF0C28
:10024A00BE0CFF3E031D21293E08C2004208C3001E
:10025A00BC17FF30BA05FF30BB05FF30BC050030C4
:10026A00BD059630C402C41F3B293C2956294408BF
:10027A00803A973E03184229432944290F2901301D
:10028A000310BD0CBC0CBB0CBA0CFF3E031D452968
:10029A000130BE003E08C407031D542955294429CC
:1002AA006D2920304402031C5B295C2968290F2927
:1002BA000130BE000310BA0DBB0DBC0DBD0DBE0B47
:1002CA005F290130C4024408031D6C296D295D2988
:1002DA0043080319712972297D29BA09BB09BC0986
:1002EA00BD09BA0A0319BB0A0319BC0A0319BD0AD4
:1002FA000800F10071188229862983120313081451
:10030A0089298312031308107108F00001300310C1
:10031A00F00CFF3E031D8C2970189429982983122A
:10032A00031388149B298312031388107108F000A1
:10033A0002300310F00CFF3E031D9E297018A629F7
:10034A00AA29831203130815AD298312031308116E
:10035A007108F00003300310F00CFF3E031DB029B2
:10036A007018B829BC29831203138815BF29831270
:10037A00031388117108F00004300310F00CFF3EDB
:10038A00031DC2297018CA29CE298312031308161D
:10039A00D1298312031308127108F00005300310E3
:1003AA00F00CFF3E031DD4297018DC29E0298312C2
:1003BA0003138816E3298312031388127108F000C5
:1003CA0006300310F00CFF3E031DE6297018EE29D3
:1003DA00F229831203130817F5298312031308134A
:1003EA007108F00007300310F00CFF3E031DF829D6
:1003FA007018002A042A831203138817072A831203
:10040A00031388130800831203134508F0004608F3
:10041A00F100F201F30100300A128A11A6220A122F
:10042A008A11730883120313A7007208A6007108C1
:10043A00A5007008A4003F30A300FA30A200E13002
:10044A00A1004830A0000A128A1193240A128A11C4
:10045A00831203132308BD002208BC002108BB0035
:10046A002008BA000A128A1102210A128A1183127A
:10047A0003133B08C6003A08C5006430F000003098
:10048A00F1004608F3004508F2000A128A155A26B6
:10049A000A128A11710883120313CE007008CD0064
:1004AA004D08303EC7004708C8002E30C70047082D
:1004BA00C9004E08F1004D08F0006430F200003027
:1004CA00F3000A128A1589250A128A117008831202
:1004DA000313C5027108031CC603C6020A30F000E2
:1004EA000030F1004608F3004508F2000A128A15A6
:1004FA005A260A128A11710883120313CE00700851
:10050A00CD004D08303EC7004708CA000A30F00047
:10051A000030F1004608F3004508F2000A128A1575
:10052A00DE250A128A11710883120313CE0070089D
:10053A00CD004D08303EC7004708CB00CC014830FB
:10054A000800F80078080319AB2AAC2AC02AF31F5E
:10055A00AF2AB02AC02A7009FA007109FB00720991
:10056A00FC007309FD00FA0A0319FB0A0319FC0AC5
:10057A000319FD0AC82A7308FD007208FC007108F5
:10058A00FB007008FA007308720471047004031DFA
:10059A00CF2AD02AD92A0030F3000030F2000030E6
:1005AA00F1000030F0005F2B9630F4007408F90077
:1005BA00EB2A0130F4007408F90701300310FD0C2E
:1005CA00FC0CFB0CFA0CFF3E031DE32AFE307D05F2
:1005DA00031DF02AF12ADE2A0D2B0130F4007408DB
:1005EA00F9070130FA07003003180130FB07003021
:1005FA0003180130FC07003003180130FD070130F1
:10060A000310FD0CFC0CFB0CFA0CFF3E031D052B22
:10061A00FF307D05031D122B132BF22A1F2B0130ED
:10062A00F9020130F4000310FA0DFB0DFC0DFD0D6B
:10063A00F40B182BFC1B222B232B292B02307902BB
:10064A000318282B292B142B79182C2B2D2B352BFF
:10065A00FF30FA05FF30FB057F30FC05FF30FD0552
:10066A000310F90C7908F400F501F601F7011830C6
:10067A000310F40DF50DF60DF70DFF3E031D3D2B8E
:10068A007408FA047508FB047608FC047708FD046C
:10069A0078080319512B522B572BF31F552B562B26
:1006AA00572BFD177D08F3007C08F2007B08F10048
:1006BA007A08F00008008316031788018901831657
:1006CA00031388018901F8308500F001F101F20174
:1006DA0020300A128A1536250A128A110A128A1538
:1006EA009E260A128A11003083120313A3000030D7
:1006FA00A2002530A1008030A000A401A40A0A1299
:10070A008A1193200A128A11F501F50A01300A1298
:10071A008A1566250A128A110130F4008030F50024
:10072A000A128A1518260A128A11F501F50A0230E8
:10073A000A128A1566250A128A11063083120313D1
:10074A00850041300A128A15EA240A128A110A120D
:10075A008A15F7240A128A1183120313CF004F084D
:10076A00D7005708CF00D0014F08C5005008C6006F
:10077A000A128A1108220A128A1183120313D1005B
:10078A005108D6005608F4000030F5000A128A15FE
:10079A0018260A128A111230F4008030F5000A1263
:1007AA008A1518260A128A11053083120313CF00FC
:1007BA004F08F10056080A128A15AE250A128A1144
:1007CA0056300A128A1500250A128A1120300A1296
:1007DA008A1500250A128A110A300A128A1500257A
:1007EA000A128A11053083120313850043300A1254
:1007FA008A15EA240A128A110A128A15F7240A1299
:10080A008A1183120313CF004F08D50055080A1224
:10081A008A153C270A128A1183120313CF004F0844
:10082A00D4005408F4000030F5000A128A1518267C
:10083A000A128A1120300A128A150C250A128A1104
:10084A00043083120313CF004F08F10054080A1230
:10085A008A15AE250A128A1120300A128A15002535
:10086A000A128A110A300A128A1500250A128A11F6
:10087A00033083120313850054300A128A15EA24BE
:10088A000A128A110A128A15F7240A128A11831285
:10089A000313CF004F08D20052080A128A153C27C8
:1008AA000A128A1183120313CF004F08D300530888
:1008BA00F4000030F5000A128A1518260A128A1165
:1008CA00DF300A128A150C250A128A1143300A12DD
:1008DA008A150C250A128A11043083120313CF00D9
:1008EA004F08F10053080A128A15AE250A128A1116
:1008FA0043300A128A1500250A128A1120300A1278
:10090A008A1500250A128A110A300A128A15002548
:10091A000A128A119A2B0A128A11002883120313C7
:10092A0023088039A8002808AD002308A800280752
:10093A00A9002908B300A21FA32CA42CA52C3314A8
:10094A0033080319A92CAA2CB92C330A031DAE2C7F
:10095A00AF2CB72C0030A3000030A2000030A10059
:10096A000030A000A217C12C0030A3000030A20062
:10097A000030A1000030A00027088039A80028080C
:10098A00AD062708A8002807A9002908B200A61F53
:10099A00CF2CD02CD12C321432080319D52CD62CBA
:1009AA00E52C320A031DDA2CDB2CE32C0030A700DD
:1009BA000030A6000030A5000030A400A617ED2CD8
:1009CA000030A7000030A6000030A5000030A400C7
:1009DA0032080319F12CF22CF72C3308031DF62CDC
:1009EA00F72C002D0030A3000030A2000030A10037
:1009FA000030A000F32F2008A8002808F0002608DD
:100A0A000A128A1105200A128A1171088312031325
:100A1A00B9007008B8003808A800A901AA01AB01FA
:100A2A002B08B1002A08B0002908AF002808AE0038
:100A3A003908A800A901AA01AB012B08B7002A08A6
:100A4A00B6002908B5002808B4002108A80028081B
:100A5A00F00025080A128A1105200A128A11710863
:100A6A0083120313B9007008B8003808A800A90156
:100A7A00AA01AB012808AE07290803110318013E91
:100A8A000319482DAF072A0803110318013E031959
:100A9A004F2DB0072B0803110318013E0319562DD9
:100AAA00B1073908A800A901AA01AB012808B407AF
:100ABA00290803110318013E0319642DB5072A08F2
:100ACA0003110318013E03196B2DB6072B080311F6
:100ADA000318013E0319722DB7072208A800280837
:100AEA00F00024080A128A1105200A128A117108D4
:100AFA0083120313B9007008B8003808A800A901C6
:100B0A00AA01AB012808AE07290803110318013E00
:100B1A000319902DAF072A0803110318013E031980
:100B2A00972DB0072B0803110318013E03199E2DB8
:100B3A00B1073908A800A901AA01AB012808B4071E
:100B4A00290803110318013E0319AC2DB5072A0819
:100B5A0003110318013E0319B32DB6072B0803111D
:100B6A000318013E0319BA2DB7070830A80003106D
:100B7A00AE0DAF0DB00DB10DA80BBC2D2108A8000C
:100B8A002808F00024080A128A1105200A128A117C
:100B9A00710883120313B9007008B8003808A80056
:100BAA003908A900AA01AB012808AE0729080311D0
:100BBA000318013E0319E22DAF072A08031103188F
:100BCA00013E0319E92DB0072B0803110318013E52
:100BDA000319F02DB1072008A8002808F0002508FD
:100BEA000A128A1105200A128A1171088312031344
:100BFA00B9007008B8003808A8003908A900AA0185
:100C0A00AB012808AE07290803110318013E03198E
:100C1A000F2EAF072A0803110318013E0319162ED7
:100C2A00B0072B0803110318013E03191D2EB10743
:100C3A000830A8000310AE0DAF0DB00DB10DA80B12
:100C4A001F2E2008A8002808F00024080A128A117A
:100C5A0005200A128A11710883120313B900700859
:100C6A00B8003808A8003908A900AA01AB01280869
:100C7A00AE07290803110318013E0319452EAF07D1
:100C8A002A0803110318013E03194C2EB0072B083A
:100C9A0003110318013E0319532EB1072108A800B6
:100CAA002808F00026080A128A1105200A128A1159
:100CBA00710883120313B9007008B8003808A80035
:100CCA003908A900AA01AB012808B40729080311A9
:100CDA000318013E0319722EB5072A0803110318D7
:100CEA00013E0319792EB6072B0803110318013E9A
:100CFA000319802EB7072208A8002808F000250843
:100D0A000A128A1105200A128A1171088312031322
:100D1A00B9007008B8003808A8003908A900AA0163
:100D2A00AB012808B407290803110318013E031967
:100D3A009F2EB5072A0803110318013E0319A62E90
:100D4A00B6072B0803110318013E0319AD2EB70786
:100D5A002208A8002808F00026080A128A1105208D
:100D6A000A128A11710883120313B9007008B800B5
:100D7A003808A8003908A900AA01AB0108300310F5
:100D8A00A80DA90DAA0DAB0DFF3E031DC42E280800
:100D9A00B407290803110318013E0319D52EB50714
:100DAA002A0803110318013E0319DC2EB6072B0883
:100DBA0003110318013E0319E32EB7072E08A800F2
:100DCA002F08A9003008AA003108AB001830031018
:100DDA00AB0CAA0CA90CA80CFF3E031DEC2E28088C
:100DEA00B407290803110318013E0319FD2EB5079C
:100DFA002A0803110318013E0319042FB6072B080A
:100E0A0003110318013E03190B2FB7070830A80076
:100E1A000310AE0DAF0DB00DB10DA80B0D2F330899
:100E2A003207A800A901A90D2808823EB80029089E
:100E3A000318013EFF3EB9003F2F0130A8000310FE
:100E4A00B40DB50DB60DB70DA80B242FB11F2E2F5B
:100E5A002F2F302F34140130A8000310AE0DAF0D20
:100E6A00B00DB10DA80B322FFF30B8070318B90A1D
:100E7A00FF30B907B61F422F432F222FB201B11FED
:100E8A00472F482F642FFF302E05A800FF302F056B
:100E9A00A900FF303005AA007F303105AB002B08CE
:100EAA002A042904280403195B2F5C2F5F2FB2013F
:100EBA00B20A642F341C622F632F642F5C2F32080E
:100ECA000319682F692F9A2F0130B40700300318CD
:100EDA000130B507003003180130B6070030031897
:100EEA000130B707371C7A2F7B2F9A2F3408A800B6
:100EFA003508A9003608AA003708AB000130AC0053
:100F0A002B0DAB0CAA0CA90CA80CAC0B852F2B082B
:100F1A00B7002A08B6002908B5002808B40001302D
:100F2A00B8070318B90A0030B9073908803AFF0030
:100F3A0080307F02031DA32FFF303802031CA62F27
:100F4A00A72FB22F7F3083120313B7008030B60069
:100F5A000030B5000030B400E72F831203133908BC
:100F6A00803AFF0080307F02031DBD2F0130380216
:100F7A000318C02FC12FCD2F003083120313B700DF
:100F8A000030B6000030B5000030B400AD01E72FE4
:100F9A00831203133808A8002808B300FF30B405E9
:100FAA00FF30B5057F30B6050030B705331CDE2F9C
:100FBA00DF2FE02FB6173308A8000310280CA9006A
:100FCA002908B7002D08A8002808B7043708A30085
:100FDA003608A2003508A1003408A00008008312D0
:100FEA000313D201D301D401D501D601D70183015C
:100FFA000A128A11602BFF1B0A2883137F18831792
:10100A000008840A0319FF0A080008308A00040845
:10101A00840A820700344134443443343A34203455
:10102A0043344F344E3454343A34203454344534EF
:0E103A004D3450343A340034563420340034EF
:1019D400F0007008831203139300080083160313A6
:1019E400141CF52CF62CF02C08000A128A15F0248D
:1019F4000A128A158312031313080800F0008316D1
:101A04000313981C062D072D012D70088312031350
:101A140099000800F30083120313891473080A124F
:101A24008A117E210A128A158312031309140D30B8
:101A3400F200F20B1B2D8312031309100800F300AC
:101A4400F201731C262D272D2B2D7008F10071082F
:101A5400F2070310F00D0310F30C7308031D332D6C
:101A6400342D232D72080800F30083160313871204
:101A7400731D3D2D3E2D422D720894008715462D71
:101A8400700872049400871173087104831203139D
:101A940094000800F40083120313891074080A12D6
:101AA4008A117E210A128A1583120313091406303F
:101AB400F3003030F200F20B5D2DF30B5D2D0000CE
:101AC4008312031309100800F800782D75087F3E6F
:101AD4000A128A154C250A128A15882D7508BF3EEC
:101AE4000A128A154C250A128A15882D7808F600E0
:101AF400F7017708003A0319802D882D7608013AFA
:101B04000319682D033A0319702D882D0800F40178
:101B1400F501701C8E2D8F2D952D7208F407031876
:101B2400F50A7308F50701300310F20DF30DFF3EBB
:101B3400031D962D01300310F10CF00CFF3E031D24
:101B44009D2D70087104031DA82DA92D8B2D7508DA
:101B5400F1007408F0000800F300F401F501F40149
:101B6400F501C52D74087307F2007208840000089B
:101B74000A128A1500250A128A150130F40703187F
:101B8400F50A0030F5077508803AF20080307202D9
:101B9400031DCE2D710874020318D12DD22DDD2D15
:101BA40074087307F2007208840083130008031D8D
:101BB400DC2DDD2DB42D0800700871040319E32D0C
:101BC400E42D132EF501F50AF22D01300310F00D6A
:101BD400F10DFF3E031DE82D0130F4007408F507F4
:101BE400F11FF52DF62DE72D71087302031DFC2D51
:101BF40070087202031CFF2D002E062E7008F202DC
:101C04007108031CF303F30201300310F10CF00C10
:101C1400FF3E031D072E0130F502031D122E132E65
:101C2400F62D7308F1007208F0000800F901FA01BA
:101C34003D2E79087407F7007508F6000318F60AB4
:101C4400F91F252EF6037608F8007808831203138B
:101C5400FF00770884000A128A1500200A128A15E8
:101C64000A128A150C250A128A150130F90703187D
:101C7400FA0A0030FA0779087407F7007508F600C5
:101C84000318F60AF91F472EF6037608F8007808B9
:101C940083120313FF00770884000A128A150020B8
:101CA4000A128A15003A031D582E592E1B2E0800BD
:101CB400F501F601700871040319612E622E992E44
:101CC400F701F70A702E01300310F00DF10DFF3EFD
:101CD400031D662E0130F4007408F707F11F732EFC
:101CE400742E652E01300310F50DF60DFF3E031D15
:101CF400752E71087302031D812E70087202031C75
:101D0400842E852E8C2E7008F2027108031CF303B6
:101D1400F302751401300310F10CF00CFF3E031DA7
:101D24008D2E0130F702031D982E992E742E7608FD
:101D3400F1007508F000080000300A128A117E21B3
:101D44000A128A151A30F600F830F500F50BA82EA1
:101D5400F60BA82E000030300A128A154C250A1200
:101D64008A150730F6007D30F500F50BB72EF60B1B
:101D7400B72E30300A128A154C250A128A150F30F4
:101D8400F6004730F500F50BC52EF60BC52ECA2E0E
:101D940030300A128A154C250A128A1538300A1274
:101DA4008A154C250A128A150C300A128A154C25FC
:101DB4000A128A1506300A128A154C250A128A1547
:101DC4000800F601F31FE72EE82EEF2EF209F309BF
:101DD400F20A0319F30AF601F60AF11FF22EF32EA2
:101DE400F82EF009F109F00A0319F10A70087104D8
:101DF4000319FD2EFE2E2D2FF501F50A0C2F0130AF
:101E04000310F00DF10DFF3E031D022F0130F4000D
:101E14007408F507F11F0F2F102F012F710873029B
:101E2400031D162F70087202031C192F1A2F202F5E
:101E34007008F2027108031CF303F302013003106B
:101E4400F10CF00CFF3E031D212F0130F502031DA0
:101E54002C2F2D2F102F76080319312F322F372FC7
:101E6400F209F309F20A0319F30A7308F10072087C
:101E7400F000080083120313A5006430F000003062
:101E8400F1002508F900FA017908F2007A08F30054
:101E94000A128A112C200A128A157008FB007B088A
:101EA40083120313A4002408303EF9007908A0002B
:101EB4006430F9007908F00024080A128A152125F3
:101EC4000A128A15FA007A0883120313A5020A304B
:101ED400F0000030F1002508F900FA017908F20059
:101EE4007A08F3000A128A112C200A128A15700843
:101EF400303EFB007B0883120313A1000A30F0007C
:101F04000030F1002508F900FA017908F2007A0896
:101F1400F3000A128A15E3260A128A157008303E65
:101F2400FB007B0883120313A200A30120300800E6
:101F34000030FC000030FB000030FA000030F900F3
:101F440073087204710470040319A92FAA2FF72FC0
:101F5400FD01FD0ABA2F0130F8000310F00DF10D58
:101F6400F20DF30DF80BAF2F0130F8007808FD07E0
:101F7400F31FBD2FBE2FAD2F0130F8000310F90D54
:101F8400FA0DFB0DFC0DF80BC02F73087702031D2F
:101F9400D52F72087602031DD52F71087502031D13
:101FA400D52F70087402031CD82FD92FE82F70087E
:101FB400F4027108031C710FF5027208031C720FFE
:101FC400F6027308031C730FF7027914013003102F
:101FD400F30CF20CF10CF00CFF3E031DE92F013061
:101FE400FD02031DF62FF72FBE2F7C08F3007B089C
:0C1FF400F2007A08F1007908F000080003
:04400E00D420FF3F7C
:00000001FF
