:020000040000FA
:100000000A128A11F62FF00070088312031393006E
:1000100008000A128A15B9250A128A1183120313DD
:100020001308080000300A128A110F220A128A11DE
:100030001A30F600F830F500F50B1C28F60B1C28DA
:10004000000030300A128A1500260A128A11073081
:10005000F6007D30F500F50B2B28F60B2B28303001
:100060000A128A1500260A128A110F30F60047304C
:10007000F500F50B3928F60B39283E2830300A12E6
:100080008A1500260A128A1138300A128A150026AB
:100090000A128A110C300A128A1500260A128A11D5
:1000A00006300A128A1500260A128A11080000304A
:1000B000FC000030FB000030FA000030F90073084B
:1000C000720471047004031966286728B428FD01BE
:1000D000FD0A77280130F8000310F00DF10DF20D44
:1000E000F30DF80B6C280130F8007808FD07F31FBA
:1000F0007A287B286A280130F8000310F90DFA0DE0
:10010000FB0DFC0DF80B7D2873087702031D922868
:1001100072087602031D922871087502031D922849
:1001200070087402031C95289628A5287008F4020C
:100130007108031C710FF5027208031C720FF6029E
:100140007308031C730FF702791401300310F30CCA
:10015000F20CF10CF00CFF3E031DA6280130FD024D
:10016000031DB328B4287B287C08F3007B08F20029
:100170007A08F1007908F0000800F601F11FC128A3
:10018000C228C928F009F109F00A0319F10AF60199
:10019000F60AF31FCC28CD28D628F209F309F20A73
:1001A0000319F30A0130F4007408F606F701F801A8
:1001B000700871040319DD28DE281529F501F50AF8
:1001C000EC2801300310F00DF10DFF3E031DE22875
:1001D0000130F4007408F507F11FEF28F028E1283A
:1001E00001300310F70DF80DFF3E031DF1287108D3
:1001F0007302031DFD2870087202031C00290129E7
:1002000008297008F2027108031CF303F302771443
:1002100001300310F10CF00CFF3E031D09290130E1
:10022000F502031D14291529F02876080319192948
:100230001A291F29F709F809F70A0319F80A780893
:10024000F1007708F0000800831203132408031D4F
:100250002A292B2958292008A5002108A6002208B0
:10026000A7002308A80006300310A50DA60DA70DB2
:10027000A80DFF3E031D34292808F3002708F200CB
:100280002608F1002508F0000030F7003D30F600A8
:100290000930F5000030F4000A128A1157200A12C2
:1002A0008A117008FF3E83160313990018118429E0
:1002B0002008A5002108A6002208A7002308A800FE
:1002C00004300310A50DA60DA70DA80DFF3E031DBC
:1002D00061292808F3002708F2002608F100250804
:1002E000F0000030F7003D30F6000930F500003036
:1002F000F4000A128A1157200A128A117008FF3E70
:1003000083160313990018151813981618128312E0
:10031000031398171813181618119810831603133F
:100320008717071308000310831203133C0D3D0DBC
:10033000BE003E08C4004408031D9F29A029A92926
:100340000030BD000030BC000030BB000030BA00FF
:100350000E2A3A08BE003B08BF003C08C0003D081A
:10036000C1001F300310C10CC00CBF0CBE0CFF3EFF
:10037000031DB2293E08C2004208C300BC17FF306B
:10038000BA05FF30BB05FF30BC050030BD05963017
:10039000C402C41FCC29CD29E7294408803A973EDE
:1003A0000318D329D429D529A02901300310BD0C65
:1003B000BC0CBB0CBA0CFF3E031DD6290130BE009D
:1003C0003E08C407031DE529E629D529FE2920306A
:1003D0004402031CEC29ED29F929A0290130BE00B3
:1003E0000310BA0DBB0DBC0DBD0DBE0BF0290130C5
:1003F000C4024408031DFD29FE29EE294308031900
:10040000022A032A0E2ABA09BB09BC09BD09BA0A85
:100410000319BB0A0319BC0A0319BD0A0800F1003D
:100420007118132A172A8312031308141A2A831225
:10043000031308107108F00001300310F00CFF3EA8
:10044000031D1D2A7018252A292A831203138814D4
:100450002C2A8312031388107108F0000230031055
:10046000F00CFF3E031D2F2A7018372A3B2A8312F7
:10047000031308153E2A8312031308117108F000B4
:1004800003300310F00CFF3E031D412A7018492A67
:100490004D2A831203138815502A831203138811DF
:1004A0007108F00004300310F00CFF3E031D532AC6
:1004B00070185B2A5F2A831203130816622A8312BC
:1004C000031308127108F00005300310F00CFF3E12
:1004D000031D652A70186D2A712A8312031388166A
:1004E000742A8312031388127108F0000630031077
:1004F000F00CFF3E031D772A70187F2A832A83128F
:1005000003130817862A8312031308137108F000D7
:1005100007300310F00CFF3E031D892A7018912A42
:10052000952A831203138817982A831203138813BA
:100530000800831203134508F0004608F100F20199
:10054000F30100300A128A11DB230A128A117308A0
:1005500083120313A7007208A6007108A500700893
:10056000A4003F30A300FA30A200E130A1004830DF
:10057000A0000A128A1195240A128A118312031309
:100580002308BD002208BC002108BB002008BA00D7
:100590000A128A1193210A128A11831203133B084B
:1005A000C6003A08C5006430F0000030F10046088B
:1005B000F3004508F2000A128A1505270A128A116B
:1005C000710883120313CE007008CD004D08303E31
:1005D000C7004708C8002E30C7004708C9004E08AA
:1005E000F1004D08F0006430F2000030F3000A1210
:1005F0008A153D260A128A11700883120313C50258
:100600007108031CC603C6020A30F0000030F10076
:100610004608F3004508F2000A128A1505270A1257
:100620008A11710883120313CE007008CD004D08A3
:10063000303EC7004708CA000A30F0000030F10021
:100640004608F3004508F2000A128A1589260A12A4
:100650008A11710883120313CE007008CD004D0873
:10066000303EC7004708CB00CC0148300800831655
:100670000317880189018316031388018901850105
:10068000F001F101F20120300A128A15EA250A125E
:100690008A110A128A1112200A128A11003083125A
:1006A0000313A3000030A2002530A1008030A00079
:1006B000A401A40A0A128A1124210A128A11F5013E
:1006C000F50A01300A128A151A260A128A11013017
:1006D000F4008030F5000A128A15C3260A128A1126
:1006E000F501F50A02300A128A151A260A128A1131
:1006F000FE3083120313850041300A128A11032051
:100700000A128A110A128A1109200A128A11831206
:100710000313CF004F08D5005508CF00D0014F0874
:10072000C5005008C6000A128A1199220A128A11BD
:1007300083120313D1005108D4005408F400003090
:10074000F5000A128A15C3260A128A111230F40023
:100750008030F5000A128A15C3260A128A11FD306C
:1007600083120313850043300A128A1103200A12F0
:100770008A110A128A1109200A128A11831203139C
:10078000CF004F08D30053080A128A15A2270A1275
:100790008A1183120313CF004F08D2005208F400CD
:1007A0000030F5000A128A15C3260A128A11702B2E
:1007B0000A128A110028F80078080319E02BE12BAF
:1007C000F52BF31FE42BE52BF52B7009FA007109CB
:1007D000FB007209FC007309FD00FA0A0319FB0A09
:1007E0000319FC0A0319FD0AFD2B7308FD007208AA
:1007F000FC007108FB007008FA00730872047104B1
:100800007004031D042C052C0E2C0030F300003066
:10081000F2000030F1000030F000942C9630F4002B
:100820007408F900202C0130F4007408F907013035
:100830000310FD0CFC0CFB0CFA0CFF3E031D182CE6
:10084000FE307D05031D252C262C132C422C013057
:10085000F4007408F9070130FA070030031801307A
:10086000FB07003003180130FC070030031801308B
:10087000FD0701300310FD0CFC0CFB0CFA0CFF3ED5
:10088000031D3A2CFF307D05031D472C482C272CD7
:10089000542C0130F9020130F4000310FA0DFB0D65
:1008A000FC0DFD0DF40B4D2CFC1B572C582C5E2C15
:1008B0000230790203185D2C5E2C492C7918612CCA
:1008C000622C6A2CFF30FA05FF30FB057F30FC05F7
:1008D000FF30FD050310F90C7908F400F501F6016D
:1008E000F70118300310F40DF50DF60DF70DFF3E6E
:1008F000031D722C7408FA047508FB047608FC04C6
:100900007708FD0478080319862C872C8C2CF31F9C
:100910008A2C8B2C8C2CFD177D08F3007C08F200B0
:100920007B08F1007A08F000080083120313230803
:100930008039A8002808AD002308A8002807A900CE
:100940002908B300A21FA52CA62CA72C331433080A
:100950000319AB2CAC2CBB2C330A031DB02CB12CCF
:10096000B92C0030A3000030A2000030A1000030FC
:10097000A000A217C32C0030A3000030A20000305A
:10098000A1000030A00027088039A8002808AD0683
:100990002708A8002807A9002908B200A61FD12C03
:1009A000D22CD32C321432080319D72CD82CE72C94
:1009B000320A031DDC2CDD2CE52C0030A7000030B2
:1009C000A6000030A5000030A400A617EF2C0030D0
:1009D000A7000030A6000030A5000030A4003208B7
:1009E0000319F32CF42CF92C3308031DF82CF92CE3
:1009F000022D0030A3000030A2000030A100003022
:100A0000A000F52F2008A8002808F00026080A12E8
:100A10008A1562260A128A11710883120313B9001B
:100A20007008B8003808A800A901AA01AB012B087A
:100A3000B1002A08B0002908AF002808AE00390824
:100A4000A800A901AA01AB012B08B7002A08B6002B
:100A50002908B5002808B4002108A8002808F000DB
:100A600025080A128A1562260A128A117108831251
:100A70000313B9007008B8003808A800A901AA013A
:100A8000AB012808AE07290803110318013E03191A
:100A90004A2DAF072A0803110318013E0319512DEF
:100AA000B0072B0803110318013E0319582DB10795
:100AB0003908A800A901AA01AB012808B407290830
:100AC00003110318013E0319662DB5072A08031107
:100AD0000318013E03196D2DB6072B0803110318E7
:100AE000013E0319742DB7072208A8002808F0005A
:100AF00024080A128A1562260A128A1171088312C2
:100B00000313B9007008B8003808A800A901AA01A9
:100B1000AB012808AE07290803110318013E031989
:100B2000922DAF072A0803110318013E0319992DCE
:100B3000B0072B0803110318013E0319A02DB107BC
:100B40003908A800A901AA01AB012808B40729089F
:100B500003110318013E0319AE2DB5072A0803112E
:100B60000318013E0319B52DB6072B08031103180E
:100B7000013E0319BC2DB7070830A8000310AE0DC5
:100B8000AF0DB00DB10DA80BBE2D2108A80028088F
:100B9000F00024080A128A1562260A128A117108C6
:100BA00083120313B9007008B8003808A800390888
:100BB000A900AA01AB012808AE07290803110318F0
:100BC000013E0319E42DAF072A0803110318013E63
:100BD0000319EB2DB0072B0803110318013E03196D
:100BE000F22DB1072008A8002808F00025080A12F5
:100BF0008A1562260A128A11710883120313B9003A
:100C00007008B8003808A8003908A900AA01AB018B
:100C10002808AE07290803110318013E0319112EF5
:100C2000AF072A0803110318013E0319182EB00755
:100C30002B0803110318013E03191F2EB1070830BA
:100C4000A8000310AE0DAF0DB00DB10DA80B212EF5
:100C50002008A8002808F00024080A128A15622635
:100C60000A128A11710883120313B9007008B800C0
:100C70003808A8003908A900AA01AB012808AE0766
:100C8000290803110318013E0319472EAF072A084C
:100C900003110318013E03194E2EB0072B08031150
:100CA0000318013E0319552EB1072108A800280892
:100CB000F00026080A128A1562260A128A117108A3
:100CC00083120313B9007008B8003808A800390867
:100CD000A900AA01AB012808B407290803110318C9
:100CE000013E0319742EB5072A0803110318013EAB
:100CF00003197B2EB6072B0803110318013E0319B5
:100D0000822EB7072208A8002808F00025080A123A
:100D10008A1562260A128A11710883120313B90018
:100D20007008B8003808A8003908A900AA01AB016A
:100D30002808B407290803110318013E0319A12E3E
:100D4000B5072A0803110318013E0319A82EB60798
:100D50002B0803110318013E0319AF2EB707220811
:100D6000A8002808F00026080A128A1562260A122E
:100D70008A11710883120313B9007008B80038088B
:100D8000A8003908A900AA01AB0108300310A80D7A
:100D9000A90DAA0DAB0DFF3E031DC62E2808B407F2
:100DA000290803110318013E0319D72EB5072A0895
:100DB00003110318013E0319DE2EB6072B08031199
:100DC0000318013E0319E52EB7072E08A8002F08C7
:100DD000A9003008AA003108AB0018300310AB0C92
:100DE000AA0CA90CA80CFF3E031DEE2E2808B40780
:100DF000290803110318013E0319FF2EB5072A081D
:100E000003110318013E0319062FB6072B0803111F
:100E10000318013E03190D2FB7070830A80003106F
:100E2000AE0DAF0DB00DB10DA80B0F2F330832076B
:100E3000A800A901A90D2808823EB80029080318B6
:100E4000013EFF3EB900412F0130A8000310B40D50
:100E5000B50DB60DB70DA80B262FB11F302F312FB2
:100E6000322F34140130A8000310AE0DAF0DB00DB9
:100E7000B10DA80B342FFF30B8070318B90AFF30A3
:100E8000B907B61F442F452F242FB201B11F492F98
:100E90004A2F662FFF302E05A800FF302F05A9002E
:100EA000FF303005AA007F303105AB002B082A0443
:100EB0002904280403195D2F5E2F612FB201B20AA5
:100EC000662F341C642F652F662F5E2F320803199E
:100ED0006A2F6B2F9C2F0130B407003003180130AC
:100EE000B507003003180130B60700300318013091
:100EF000B707371C7C2F7D2F9C2F3408A80035089E
:100F0000A9003608AA003708AB000130AC002B0D51
:100F1000AB0CAA0CA90CA80CAC0B872F2B08B700A4
:100F20002A08B6002908B5002808B4000130B8071F
:100F30000318B90A0030B9073908803AFF00803039
:100F40007F02031DA52FFF303802031CA82FA92FF5
:100F5000B42F7F3083120313B7008030B600003007
:100F6000B5000030B400E92F831203133908803A2A
:100F7000FF0080307F02031DBF2F013038020318AD
:100F8000C22FC32FCF2F003083120313B7000030BE
:100F9000B6000030B5000030B400AD01E92F831277
:100FA00003133808A8002808B300FF30B405FF3049
:100FB000B5057F30B6050030B705331CE02FE12FB3
:100FC000E22FB6173308A8000310280CA90029083F
:100FD000B7002D08A8002808B7043708A300360872
:100FE000A2003508A1003408A000080083120313F2
:100FF000D201D301D401D50183010A128A11372B02
:10100000FF1B0A2883137F1883170008840A03191B
:10101000FF0A080008308A000408840A82070034A6
:101020004134443443343A34203443344F344E341E
:1010300054343A342034543445344D3450343A34F2
:08104000003456342034003462
:101B720083160313141CBE2DBF2DB92D0800F300CC
:101B820083120313891473080A128A110F220A128C
:101B92008A158312031309140D30F200F20BCF2DB4
:101BA2008312031309100800F300F201731CDA2DEB
:101BB200DB2DDF2D7008F1007108F2070310F00D24
:101BC2000310F30C7308031DE72DE82DD72D7208BF
:101BD2000800F300831603138712731DF12DF22DF3
:101BE200F62D720894008715FA2D7008720494007D
:101BF2008711730871048312031394000800F40020
:101C020083120313891074080A128A110F220A120E
:101C12008A158312031309140630F3003030F200E0
:101C2200F20B112EF30B112E000083120313091075
:101C32000800F8002C2E75087F3E0A128A1500262D
:101C42000A128A153C2E7508BF3E0A128A15002612
:101C52000A128A153C2E7808F600F7017708003A36
:101C62000319342E3C2E7608013A03191C2E033A2E
:101C72000319242E3C2E0800F401F501701C422E9B
:101C8200432E492E7208F4070318F50A7308F50764
:101C920001300310F20DF30DFF3E031D4A2E0130F9
:101CA2000310F10CF00CFF3E031D512E700871045D
:101CB200031D5C2E5D2E3F2E7508F1007408F000A6
:101CC2000800F800F401F5017008F200F30172084F
:101CD200F6007308F700781C6F2E702E762E7608A9
:101CE200F4070318F50A7708F50701300310F60D1B
:101CF200F70DFF3E031D772E0310F80C7808031D25
:101D0200832E842E6C2E7508F1007408F0000800F2
:101D12007008710403198E2E8F2EBE2EF501F50A5E
:101D22009D2E01300310F00DF10DFF3E031D932E89
:101D32000130F4007408F507F11FA02EA12E922E97
:101D420071087302031DA72E70087202031CAA2ECB
:101D5200AB2EB12E7008F2027108031CF303F302DA
:101D620001300310F10CF00CFF3E031DB22E0130C6
:101D7200F502031DBD2EBE2EA12E7308F1007208BE
:101D8200F0000800F901FA01E82E79087407F7005B
:101D92007508F6000318F60AF91FD02EF603760826
:101DA200F800780883120313FF00770884000A12F0
:101DB2008A1500200A128A150A128A15C0250A12EB
:101DC2008A150130F9070318FA0A0030FA07790870
:101DD2007407F7007508F6000318F60AF91FF22EC9
:101DE200F6037608F800780883120313FF007708D9
:101DF20084000A128A1500200A128A15003A031D6D
:101E0200032F042FC62E0800F501F6017008710495
:101E120003190C2F0D2F442FF701F70A1B2F013046
:101E22000310F00DF10DFF3E031D112F0130F400E0
:101E32007408F707F11F1E2F1F2F102F01300310F8
:101E4200F50DF60DFF3E031D202F71087302031DD1
:101E52002C2F70087202031C2F2F302F372F70087F
:101E6200F2027108031CF303F3027514013003102C
:101E7200F10CF00CFF3E031D382F0130F702031D59
:101E8200432F442F1F2F7608F1007508F000080039
:101E9200F601F31F4D2F4E2F552FF209F309F20AC7
:101EA2000319F30AF601F60AF11F582F592F5E2F74
:101EB200F009F109F00A0319F10A70087104031913
:101EC200632F642F932FF501F50A722F013003104F
:101ED200F00DF10DFF3E031D682F0130F400740870
:101EE200F507F11F752F762F672F71087302031DF7
:101EF2007C2F70087202031C7F2F802F862F7008A0
:101F0200F2027108031CF303F30201300310F10C17
:101F1200F00CFF3E031D872F0130F502031D922FA7
:101F2200932F762F76080319972F982F9D2FF2095A
:101F3200F309F20A0319F30A7308F1007208F000B8
:101F4200080083120313A5006430F0000030F10092
:101F52002508F900FA017908F2007A08F3000A125A
:101F62008A11BD200A128A157008FB007B088312B1
:101F72000313A4002408303EF9007908A00064305D
:101F8200F9007908F00024080A128A15D5250A12E8
:101F92008A15FA007A0883120313A5020A30F000A8
:101FA2000030F1002508F900FA017908F2007A08F8
:101FB200F3000A128A11BD200A128A157008303EF7
:101FC200FB007B0883120313A1000A30F0000030EB
:101FD200F1002508F900FA017908F2007A08F30005
:101FE2000A128A1549270A128A157008303EFB0028
:0E1FF2007B0883120313A200A3012030080015
:04400E00D420FF3F7C
:00000001FF
