:020000040000FA
:060000000A128A110C280F
:10000800FE00030EF8000A08F9000A128A112528D2
:100018000A128A110F280A128A11AB200A128A11B1
:10002800FA000A128A11AC200A128A11FB00F001A8
:10003800F101F201F301F401F50183010A128A11B9
:1000480088280B1C2828292874287A08F60076089E
:10005800FB00831203130608F6007608FA007B18E3
:100068003628372854287A1C3A283B2854287208FE
:100078007402F6007308031C730A7502F700003057
:100088007702323003197602031C4B284C28542877
:100098007508F3007408F2000130F6007608880746
:1000A800FB18572858287328FA1C5B285C287328E3
:1000B80070087402F6007108031C710A7502F700D3
:1000C80000307702323003197602031C6C286D2841
:1000D80073287508F1007408F000013088020B10CD
:1000E800831203138C1C79287A2881288C103230CB
:1000F800F4070318F50A0030F50779088A00780E26
:100108008300FE0E7E0E0900013083160317880057
:1001180089010130831603138500FF3086008701AB
:100128008801FF3096008312031388018316031396
:1001380081138B170B178B158C1432308312031312
:100148008D0004309200A7280A128A110C28FF3467
:02015800FF3472
:04400E00D420FF3F7C
:00000001FF
