:020000040000FA
:060000000A128A110C280F
:10000800FE00030EF3000A08F4000A128A112628DB
:100018000A128A110F280A128A1100210A128A115B
:10002800F8000A128A1101210A128A11F900A001A6
:10003800A101A201A301F501F601F70183010A124A
:100048008A11A4280B1C29282A2875287808F10069
:100058007108F900831203130608F1007108F8000B
:100068007918372838285528781C3B283C285528E3
:1000780022087502F1002308031C230A7602F20005
:1000880000307202323003197102031C4C284D28CB
:1000980055287608A3007508A2000130F100710800
:1000A8008807F918582859287428F81C5C285D28EE
:1000B800742820087502F1002108031C210A760221
:1000C800F20000307202323003197102031C6D28ED
:1000D8006E2874287608A1007508A00001308802EF
:1000E8000B10831203138C1C7A287B2882288C100F
:1000F8003230F5070318F60A0030F6078C1D8528FC
:1001080086289D288C110A128A11EA200A128A115F
:10011800F1007108F70043307706031D94289528ED
:100128009D288312031308080A128A11FA200A125A
:100138008A1174088A00730E8300FE0E7E0E090071
:100148000130831603178800890183160313880179
:10015800831203138801FF3083160313960081135B
:100168008B170B178B158C148C15323083120313D5
:100178008D0004309200A401A501A60124300A12C2
:100188008A11CC200A128A11C8280A128A110C284E
:1001980083120313A7008316031387128312031312
:1001A800271DD728D828DE2826088316031394008D
:1001B8008715E4282408260483160313940087115E
:1001C8008312031327082504940008000A128A11D1
:1001D800F3200A128A1183120313130808008316E6
:1001E8000313141CF828F928F3280800F0007008F5
:0C01F8008312031393000800FF34FF344F
:04400E00D420FF3F7C
:00000001FF
