:020000040000FA
:060000000A128A11FC2F18
:10051800831203131F083F3940389F0083160313C3
:100528009F139F121F12831203131F140800F80051
:10053800F401F5017008F200F3017208F60073087F
:10054800F700781CA82AA92AAF2A7608F407031806
:10055800F50A7708F50701300310F60DF70DFF3E91
:10056800031DB02A0310F80C7808031DBC2ABD2A05
:10057800A52A7508F1007408F0000800F900790848
:10058800F200F20DF20D831203131F087206C3392D
:1005980072069F009F149F18D22AD32ACF2A831647
:1005A80003131E08F20006300310F20CFF3E031D71
:1005B800D82A7208F300F401831203131E08F50009
:1005C800F6010310F50DF60D0310F50DF60D730881
:1005D8007504F70074087604F8007708F0007808C6
:1005E800F10008000130831603178800F8308316DD
:1005F8000313880086010A128A118C220A128A11B2
:1006080000300A128A11C2220A128A117108831252
:100618000313C7007008C6004608F0004708F10039
:100628000030F11BFF30F200F30001300A128A118A
:10063800E1230A128A11730883120313A7007208B0
:10064800A6007108A5007008A4003E30A300FA3087
:10065800A2004330A100FE30A0000A128A119B2498
:100668000A128A11831203132308BD002208BC0052
:100678002108BB002008BA000A128A1165230A1251
:100688008A11831203133A08C5004508C8004808B0
:100698008600193048020318522B532B562B013071
:1006A8008800042B2430480203185B2B5C2B5F2B3B
:1006B80002308800042B04308800042B0A128A11A7
:1006C80000280310831203133C0D3D0DBE003E08A5
:1006D800C4004408031D712B722B7B2B0030BD0016
:1006E8000030BC000030BB000030BA00E02B3A08F4
:1006F800BE003B08BF003C08C0003D08C1001F30D9
:100708000310C10CC00CBF0CBE0CFF3E031D842B94
:100718003E08C2004208C300BC17FF30BA05FF30CC
:10072800BB05FF30BC050030BD059630C402C41FB0
:100738009E2B9F2BB92B4408803A973E0318A52B74
:10074800A62BA72B722B01300310BD0CBC0CBB0CC5
:10075800BA0CFF3E031DA82B0130BE003E08C4079B
:10076800031DB72BB82BA72BD02B20304402031C1A
:10077800BE2BBF2BCB2B722B0130BE000310BA0D42
:10078800BB0DBC0DBD0DBE0BC22B0130C40244080D
:10079800031DCF2BD02BC02B43080319D42BD52BEB
:1007A800E02BBA09BB09BC09BD09BA0A0319BB0A7F
:1007B8000319BC0A0319BD0A0800F80078080319D0
:1007C800E62BE72BFB2BF31FEA2BEB2BFB2B7009FC
:1007D800FA007109FB007209FC007309FD00FA0AAE
:1007E8000319FB0A0319FC0A0319FD0A032C7308F1
:1007F800FD007208FC007108FB007008FA0073081D
:10080800720471047004031D0A2C0B2C142C003084
:10081800F3000030F2000030F1000030F0009A2CB4
:100828009630F4007408F900262C0130F40074089E
:10083800F90701300310FD0CFC0CFB0CFA0CFF3E11
:10084800031D1E2CFE307D05031D2B2C2C2C192C72
:10085800482C0130F4007408F9070130FA07003019
:1008680003180130FB07003003180130FC07003083
:1008780003180130FD0701300310FD0CFC0CFB0CC4
:10088800FA0CFF3E031D402CFF307D05031D4D2C47
:100898004E2C2D2C5A2C0130F9020130F400031093
:1008A800FA0DFB0DFC0DFD0DF40B532CFC1B5D2C00
:1008B8005E2C642C023079020318632C642C4F2CB4
:1008C8007918672C682C702CFF30FA05FF30FB056F
:1008D8007F30FC05FF30FD050310F90C7908F400A2
:1008E800F501F601F70118300310F40DF50DF60DBA
:1008F800F70DFF3E031D782C7408FA047508FB04F5
:100908007608FC047708FD04780803198C2C8D2CD4
:10091800922CF31F902C912C922CFD177D08F3003C
:100928007C08F2007B08F1007A08F00008008312C6
:10093800031323088039A8002808AD002308A8005D
:100948002807A9002908B300A21FAB2CAC2CAD2C9A
:10095800331433080319B12CB22CC12C330A031DEC
:10096800B62CB72CBF2C0030A3000030A2000030FA
:10097800A1000030A000A217C92C0030A30000304D
:10098800A2000030A1000030A00027088039A8008C
:100998002808AD062708A8002807A9002908B200DA
:1009A800A61FD72CD82CD92C321432080319DD2CC9
:1009B800DE2CED2C320A031DE22CE32CEB2C00304C
:1009C800A7000030A6000030A5000030A400A6173C
:1009D800F52C0030A7000030A6000030A50000303C
:1009E800A40032080319F92CFA2CFF2C3308031D34
:1009F800FE2CFF2C082D0030A3000030A200003090
:100A0800A1000030A000FB2F2008A8002808F00053
:100A180026080A128A119B220A128A117108831267
:100A28000313B9007008B8003808A800A901AA0182
:100A3800AB012B08B1002A08B0002908AF0028082C
:100A4800AE003908A800A901AA01AB012B08B7001C
:100A58002A08B6002908B5002808B4002108A8000B
:100A68002808F00025080A128A119B220A128A1106
:100A7800710883120313B9007008B8003808A80079
:100A8800A901AA01AB012808AE0729080311031818
:100A9800013E0319502DAF072A0803110318013E20
:100AA8000319572DB0072B0803110318013E03192A
:100AB8005E2DB1073908A800A901AA01AB012808D1
:100AC800B407290803110318013E03196C2DB50753
:100AD8002A0803110318013E0319732DB6072B08C2
:100AE80003110318013E03197A2DB7072208A8003D
:100AF8002808F00024080A128A119B220A128A1177
:100B0800710883120313B9007008B8003808A800E8
:100B1800A901AA01AB012808AE0729080311031887
:100B2800013E0319982DAF072A0803110318013E47
:100B380003199F2DB0072B0803110318013E031951
:100B4800A62DB1073908A800A901AA01AB012808F8
:100B5800B407290803110318013E0319B42DB5077A
:100B68002A0803110318013E0319BB2DB6072B08E9
:100B780003110318013E0319C22DB7070830A80056
:100B88000310AE0DAF0DB00DB10DA80BC42D21088B
:100B9800A8002808F00024080A128A119B220A12C9
:100BA8008A11710883120313B9007008B800380855
:100BB800A8003908A900AA01AB012808AE0729082E
:100BC80003110318013E0319EA2DAF072A08031180
:100BD8000318013E0319F12DB0072B080311031860
:100BE800013E0319F82DB1072008A8002808F000D5
:100BF80025080A128A119B220A128A117108831287
:100C08000313B9007008B8003808A8003908A9000B
:100C1800AA01AB012808AE07290803110318013EF1
:100C28000319172EAF072A0803110318013E0319E9
:100C38001E2EB0072B0803110318013E0319252E99
:100C4800B1070830A8000310AE0DAF0DB00DB10DFF
:100C5800A80B272E2008A8002808F00024080A124C
:100C68008A119B220A128A11710883120313B90090
:100C78007008B8003808A8003908A900AA01AB0113
:100C88002808AE07290803110318013E03194D2E41
:100C9800AF072A0803110318013E0319542EB007A1
:100CA8002B0803110318013E03195B2EB107210815
:100CB800A8002808F00026080A128A119B220A12A6
:100CC8008A11710883120313B9007008B800380834
:100CD800A8003908A900AA01AB012808B407290807
:100CE80003110318013E03197A2EB5072A080311C8
:100CF8000318013E0319812EB6072B0803110318A8
:100D0800013E0319882EB7072208A8002808F0001A
:100D180025080A128A119B220A128A117108831265
:100D28000313B9007008B8003808A8003908A900EA
:100D3800AA01AB012808B407290803110318013ECA
:100D48000319A72EB5072A0803110318013E031932
:100D5800AE2EB6072B0803110318013E0319B52E52
:100D6800B7072208A8002808F00026080A128A11E6
:100D78009B220A128A11710883120313B9007008A2
:100D8800B8003808A8003908A900AA01AB01083042
:100D98000310A80DA90DAA0DAB0DFF3E031DCC2E07
:100DA8002808B407290803110318013E0319DD2E8A
:100DB800B5072A0803110318013E0319E42EB607E4
:100DC8002B0803110318013E0319EB2EB7072E0851
:100DD800A8002F08A9003008AA003108AB00183075
:100DE8000310AB0CAA0CA90CA80CFF3E031DF42E93
:100DF8002808B407290803110318013E0319052F11
:100E0800B5072A0803110318013E03190C2FB6076A
:100E18002B0803110318013E0319132FB7070830D5
:100E2800A8000310AE0DAF0DB00DB10DA80B152F16
:100E380033083207A800A901A90D2808823EB80086
:100E480029080318013EFF3EB900472F0130A800CA
:100E58000310B40DB50DB60DB70DA80B2C2FB11F8F
:100E6800362F372F382F34140130A8000310AE0D59
:100E7800AF0DB00DB10DA80B3A2FFF30B80703180E
:100E8800B90AFF30B907B61F4A2F4B2F2A2FB201D4
:100E9800B11F4F2F502F6C2FFF302E05A800FF30A9
:100EA8002F05A900FF303005AA007F303105AB00BF
:100EB8002B082A04290428040319632F642F672F99
:100EC800B201B20A6C2F341C6A2F6B2F6C2F642F5F
:100ED80032080319702F712FA22F0130B407003088
:100EE80003180130B507003003180130B607003089
:100EF80003180130B707371C822F832FA22F34081D
:100F0800A8003508A9003608AA003708AB00013048
:100F1800AC002B0DAB0CAA0CA90CA80CAC0B8D2F9C
:100F28002B08B7002A08B6002908B5002808B4001D
:100F38000130B8070318B90A0030B9073908803AF0
:100F4800FF0080307F02031DAB2FFF303802031CE7
:100F5800AE2FAF2FBA2F7F3083120313B700803024
:100F6800B6000030B5000030B400EF2F8312031331
:100F78003908803AFF0080307F02031DC52F0130F9
:100F880038020318C82FC92FD52F00308312031336
:100F9800B7000030B6000030B5000030B400AD0135
:100FA800EF2F831203133808A8002808B300FF3076
:100FB800B405FF30B5057F30B6050030B705331CE2
:100FC800E62FE72FE82FB6173308A8000310280CE0
:100FD800A9002908B7002D08A8002808B704370871
:100FE800A3003608A2003508A1003408A0000800B4
:080FF80083010A128A11F62A96
:04400E00D420FF3F7C
:00000001FF
