:020000040000FA
:060000000A128A110C280F
:10000800FE00030EF2000A08F3000A128A114028C3
:100018000A128A110F28F701F801F90183010A125F
:100028008A111628013083160317880089018B1757
:100038000B17831603138C158601F401F501F601DD
:1000480024300A128A1162200A128A110A128A11AD
:1000580093200A128A1100300A128A1180200A128B
:100068008A1183120313A1002108F9007908860078
:100078002F280A128A110C28831203138C1D452875
:1000880046285B288C110A128A11A1200A128A11AB
:10009800F1007108F80041307806031D54285528EE
:1000A8005B2879080A128A11B1200A128A1173088A
:1000B8008A00720E8300FE0E7E0E0900831203135F
:1000C800A00083160313871283120313201D6D28C3
:1000D8006E287428760883160313940087157A28E7
:1000E800740876048316031394008711831203138C
:1000F8002008750494000800F5007508F400F40D54
:10010800F40D831203131F087406C33974069F0085
:100118009F149F18902891288D281E080800831284
:1001280003131F083F3940389F00831603139F129B
:100138001F12831203131F1408000A128A11AA201F
:100148000A128A1183120313130808008316031373
:10015800141CAF28B028AA280800F00070088312E1
:06016800031393000800E0
:04400E00D720FF3F79
:00000001FF
