:020000040000FA
:060000000A128A110C280F
:10000800FE00030EF3000A08F4000A128A114228BF
:100018000A128A110F2883120313A50183010A12F9
:100028008A111628013083160317880089018B1757
:100038000B17831603138C15860183120313A00173
:10004800A101A20124300A128A116B200A128A1116
:100058000A128A119C200A128A1100300A128A1187
:1000680089200A128A1183120313A4002408A50008
:100078002508860031280A128A110C2883120313D6
:100088008C1D4728482864280A128A11AA200A12B7
:100098008A11F100F2017108F5007208F600750383
:1000A8007604031D5828592861288312031325084C
:1000B8000A128A11BA200A128A11831203138C11A8
:1000C80074088A00730E8300FE0E7E0E09008312E8
:1000D8000313A30083160313871283120313231D2C
:1000E800762877287D28220883160313940087151D
:1000F800832820082204831603139400871183128F
:100108000313230821049400080083120313A10099
:100118002108A000A00DA00D1F082006C339200645
:100128009F009F149F1899289A2896281E0808004F
:10013800831203131F083F3940389F0083160313A7
:100148009F121F12831203131F1408000A128A1128
:10015800B3200A128A1183120313130808008316A6
:100168000313141CB828B928B3280800F000700835
:08017800831203139300080039
:04400E00D720FF3F79
:00000001FF
